{"@openzeppelin/contracts/finance/PaymentSplitter.sol":{"PaymentSplitter":{"abi":[{"inputs":[{"internalType":"address[]","name":"payees","type":"address[]"},{"internalType":"uint256[]","name":"shares_","type":"uint256[]"}],"stateMutability":"payable","type":"constructor"},{"anonymous":false,"inputs":[{"indexed":true,"internalType":"contract IERC20","name":"token","type":"address"},{"indexed":false,"internalType":"address","name":"to","type":"address"},{"indexed":false,"internalType":"uint256","name":"amount","type":"uint256"}],"name":"ERC20PaymentReleased","type":"event"},{"anonymous":false,"inputs":[{"indexed":false,"internalType":"address","name":"account","type":"address"},{"indexed":false,"internalType":"uint256","name":"shares","type":"uint256"}],"name":"PayeeAdded","type":"event"},{"anonymous":false,"inputs":[{"indexed":false,"internalType":"address","name":"from","type":"address"},{"indexed":false,"internalType":"uint256","name":"amount","type":"uint256"}],"name":"PaymentReceived","type":"event"},{"anonymous":false,"inputs":[{"indexed":false,"internalType":"address","name":"to","type":"address"},{"indexed":false,"internalType":"uint256","name":"amount","type":"uint256"}],"name":"PaymentReleased","type":"event"},{"inputs":[{"internalType":"uint256","name":"index","type":"uint256"}],"name":"payee","outputs":[{"internalType":"address","name":"","type":"address"}],"stateMutability":"view","type":"function"},{"inputs":[{"internalType":"address","name":"account","type":"address"}],"name":"releasable","outputs":[{"internalType":"uint256","name":"","type":"uint256"}],"stateMutability":"view","type":"function"},{"inputs":[{"internalType":"contract IERC20","name":"token","type":"address"},{"internalType":"address","name":"account","type":"address"}],"name":"releasable","outputs":[{"internalType":"uint256","name":"","type":"uint256"}],"stateMutability":"view","type":"function"},{"inputs":[{"internalType":"address payable","name":"account","type":"address"}],"name":"release","outputs":[],"stateMutability":"nonpayable","type":"function"},{"inputs":[{"internalType":"contract IERC20","name":"token","type":"address"},{"internalType":"address","name":"account","type":"address"}],"name":"release","outputs":[],"stateMutability":"nonpayable","type":"function"},{"inputs":[{"internalType":"contract IERC20","name":"token","type":"address"},{"internalType":"address","name":"account","type":"address"}],"name":"released","outputs":[{"internalType":"uint256","name":"","type":"uint256"}],"stateMutability":"view","type":"function"},{"inputs":[{"internalType":"address","name":"account","type":"address"}],"name":"released","outputs":[{"internalType":"uint256","name":"","type":"uint256"}],"stateMutability":"view","type":"function"},{"inputs":[{"internalType":"address","name":"account","type":"address"}],"name":"shares","outputs":[{"internalType":"uint256","name":"","type":"uint256"}],"stateMutability":"view","type":"function"},{"inputs":[{"internalType":"contract IERC20","name":"token","type":"address"}],"name":"totalReleased","outputs":[{"internalType":"uint256","name":"","type":"uint256"}],"stateMutability":"view","type":"function"},{"inputs":[],"name":"totalReleased","outputs":[{"internalType":"uint256","name":"","type":"uint256"}],"stateMutability":"view","type":"function"},{"inputs":[],"name":"totalShares","outputs":[{"internalType":"uint256","name":"","type":"uint256"}],"stateMutability":"view","type":"function"},{"stateMutability":"payable","type":"receive"}],"evm":{"bytecode":{"linkReferences":{},"object":"60806040526040516200239c3803806200239c833981810160405281019062000029919062000668565b805182511462000070576040517f08c379a0000000000000000000000000000000000000000000000000000000008152600401620000679062000774565b60405180910390fd5b6000825111620000b7576040517f08c379a0000000000000000000000000000000000000000000000000000000008152600401620000ae90620007e6565b60405180910390fd5b60005b8251811015620001265762000110838281518110620000de57620000dd62000808565b5b6020026020010151838381518110620000fc57620000fb62000808565b5b60200260200101516200012f60201b60201c565b80806200011d9062000866565b915050620000ba565b50505062000b02565b600073ffffffffffffffffffffffffffffffffffffffff168273ffffffffffffffffffffffffffffffffffffffff161415620001a2576040517f08c379a000000000000000000000000000000000000000000000000000000000815260040162000199906200092a565b60405180910390fd5b60008111620001e8576040517f08c379a0000000000000000000000000000000000000000000000000000000008152600401620001df906200099c565b60405180910390fd5b6000600260008473ffffffffffffffffffffffffffffffffffffffff1673ffffffffffffffffffffffffffffffffffffffff16815260200190815260200160002054146200026d576040517f08c379a0000000000000000000000000000000000000000000000000000000008152600401620002649062000a34565b60405180910390fd5b6004829080600181540180825580915050600190039060005260206000200160009091909190916101000a81548173ffffffffffffffffffffffffffffffffffffffff021916908373ffffffffffffffffffffffffffffffffffffffff16021790555080600260008473ffffffffffffffffffffffffffffffffffffffff1673ffffffffffffffffffffffffffffffffffffffff168152602001908152602001600020819055508060005462000324919062000a56565b6000819055507f40c340f65e17194d14ddddb073d3c9f888e3cb52b5aae0c6c7706b4fbc905fac82826040516200035d92919062000ad5565b60405180910390a15050565b6000604051905090565b600080fd5b600080fd5b600080fd5b6000601f19601f8301169050919050565b7f4e487b7100000000000000000000000000000000000000000000000000000000600052604160045260246000fd5b620003cd8262000382565b810181811067ffffffffffffffff82111715620003ef57620003ee62000393565b5b80604052505050565b60006200040462000369565b9050620004128282620003c2565b919050565b600067ffffffffffffffff82111562000435576200043462000393565b5b602082029050602081019050919050565b600080fd5b600073ffffffffffffffffffffffffffffffffffffffff82169050919050565b600062000478826200044b565b9050919050565b6200048a816200046b565b81146200049657600080fd5b50565b600081519050620004aa816200047f565b92915050565b6000620004c7620004c18462000417565b620003f8565b90508083825260208201905060208402830185811115620004ed57620004ec62000446565b5b835b818110156200051a578062000505888262000499565b845260208401935050602081019050620004ef565b5050509392505050565b600082601f8301126200053c576200053b6200037d565b5b81516200054e848260208601620004b0565b91505092915050565b600067ffffffffffffffff82111562000575576200057462000393565b5b602082029050602081019050919050565b6000819050919050565b6200059b8162000586565b8114620005a757600080fd5b50565b600081519050620005bb8162000590565b92915050565b6000620005d8620005d28462000557565b620003f8565b90508083825260208201905060208402830185811115620005fe57620005fd62000446565b5b835b818110156200062b5780620006168882620005aa565b84526020840193505060208101905062000600565b5050509392505050565b600082601f8301126200064d576200064c6200037d565b5b81516200065f848260208601620005c1565b91505092915050565b6000806040838503121562000682576200068162000373565b5b600083015167ffffffffffffffff811115620006a357620006a262000378565b5b620006b18582860162000524565b925050602083015167ffffffffffffffff811115620006d557620006d462000378565b5b620006e38582860162000635565b9150509250929050565b600082825260208201905092915050565b7f5061796d656e7453706c69747465723a2070617965657320616e64207368617260008201527f6573206c656e677468206d69736d617463680000000000000000000000000000602082015250565b60006200075c603283620006ed565b91506200076982620006fe565b604082019050919050565b600060208201905081810360008301526200078f816200074d565b9050919050565b7f5061796d656e7453706c69747465723a206e6f20706179656573000000000000600082015250565b6000620007ce601a83620006ed565b9150620007db8262000796565b602082019050919050565b600060208201905081810360008301526200080181620007bf565b9050919050565b7f4e487b7100000000000000000000000000000000000000000000000000000000600052603260045260246000fd5b7f4e487b7100000000000000000000000000000000000000000000000000000000600052601160045260246000fd5b6000620008738262000586565b91507fffffffffffffffffffffffffffffffffffffffffffffffffffffffffffffffff821415620008a957620008a862000837565b5b600182019050919050565b7f5061796d656e7453706c69747465723a206163636f756e74206973207468652060008201527f7a65726f20616464726573730000000000000000000000000000000000000000602082015250565b600062000912602c83620006ed565b91506200091f82620008b4565b604082019050919050565b60006020820190508181036000830152620009458162000903565b9050919050565b7f5061796d656e7453706c69747465723a20736861726573206172652030000000600082015250565b600062000984601d83620006ed565b915062000991826200094c565b602082019050919050565b60006020820190508181036000830152620009b78162000975565b9050919050565b7f5061796d656e7453706c69747465723a206163636f756e7420616c726561647960008201527f2068617320736861726573000000000000000000000000000000000000000000602082015250565b600062000a1c602b83620006ed565b915062000a2982620009be565b604082019050919050565b6000602082019050818103600083015262000a4f8162000a0d565b9050919050565b600062000a638262000586565b915062000a708362000586565b9250827fffffffffffffffffffffffffffffffffffffffffffffffffffffffffffffffff0382111562000aa85762000aa762000837565b5b828201905092915050565b62000abe816200046b565b82525050565b62000acf8162000586565b82525050565b600060408201905062000aec600083018562000ab3565b62000afb602083018462000ac4565b9392505050565b61188a8062000b126000396000f3fe6080604052600436106100a05760003560e01c80639852595c116100645780639852595c146101e3578063a3f8eace14610220578063c45ac0501461025d578063ce7c2ac21461029a578063d79779b2146102d7578063e33b7de314610314576100e7565b806319165587146100ec5780633a98ef3914610115578063406072a91461014057806348b750441461017d5780638b83209b146101a6576100e7565b366100e7577f6ef95f06320e7a25a04a175ca677b7052bdd97131872c2192525a629f51be7706100ce61033f565b346040516100dd929190610e51565b60405180910390a1005b600080fd5b3480156100f857600080fd5b50610113600480360381019061010e9190610ebd565b610347565b005b34801561012157600080fd5b5061012a6104c7565b6040516101379190610eea565b60405180910390f35b34801561014c57600080fd5b5061016760048036038101906101629190610f6f565b6104d0565b6040516101749190610eea565b60405180910390f35b34801561018957600080fd5b506101a4600480360381019061019f9190610f6f565b610557565b005b3480156101b257600080fd5b506101cd60048036038101906101c89190610fdb565b61076b565b6040516101da9190611008565b60405180910390f35b3480156101ef57600080fd5b5061020a60048036038101906102059190611023565b6107b3565b6040516102179190610eea565b60405180910390f35b34801561022c57600080fd5b5061024760048036038101906102429190611023565b6107fc565b6040516102549190610eea565b60405180910390f35b34801561026957600080fd5b50610284600480360381019061027f9190610f6f565b61082f565b6040516102919190610eea565b60405180910390f35b3480156102a657600080fd5b506102c160048036038101906102bc9190611023565b6108de565b6040516102ce9190610eea565b60405180910390f35b3480156102e357600080fd5b506102fe60048036038101906102f99190611050565b610927565b60405161030b9190610eea565b60405180910390f35b34801561032057600080fd5b50610329610970565b6040516103369190610eea565b60405180910390f35b600033905090565b6000600260008373ffffffffffffffffffffffffffffffffffffffff1673ffffffffffffffffffffffffffffffffffffffff16815260200190815260200160002054116103c9576040517f08c379a00000000000000000000000000000000000000000000000000000000081526004016103c090611100565b60405180910390fd5b60006103d4826107fc565b9050600081141561041a576040517f08c379a000000000000000000000000000000000000000000000000000000000815260040161041190611192565b60405180910390fd5b806001600082825461042c91906111e1565b9250508190555080600360008473ffffffffffffffffffffffffffffffffffffffff1673ffffffffffffffffffffffffffffffffffffffff1681526020019081526020016000206000828254019250508190555061048a828261097a565b7fdf20fd1e76bc69d672e4814fafb2c449bba3a5369d8359adf9e05e6fde87b05682826040516104bb929190611296565b60405180910390a15050565b60008054905090565b6000600660008473ffffffffffffffffffffffffffffffffffffffff1673ffffffffffffffffffffffffffffffffffffffff16815260200190815260200160002060008373ffffffffffffffffffffffffffffffffffffffff1673ffffffffffffffffffffffffffffffffffffffff16815260200190815260200160002054905092915050565b6000600260008373ffffffffffffffffffffffffffffffffffffffff1673ffffffffffffffffffffffffffffffffffffffff16815260200190815260200160002054116105d9576040517f08c379a00000000000000000000000000000000000000000000000000000000081526004016105d090611100565b60405180910390fd5b60006105e5838361082f565b9050600081141561062b576040517f08c379a000000000000000000000000000000000000000000000000000000000815260040161062290611192565b60405180910390fd5b80600560008573ffffffffffffffffffffffffffffffffffffffff1673ffffffffffffffffffffffffffffffffffffffff168152602001908152602001600020600082825461067a91906111e1565b9250508190555080600660008573ffffffffffffffffffffffffffffffffffffffff1673ffffffffffffffffffffffffffffffffffffffff16815260200190815260200160002060008473ffffffffffffffffffffffffffffffffffffffff1673ffffffffffffffffffffffffffffffffffffffff16815260200190815260200160002060008282540192505081905550610716838383610a6e565b8273ffffffffffffffffffffffffffffffffffffffff167f3be5b7a71e84ed12875d241991c70855ac5817d847039e17a9d895c1ceb0f18a838360405161075e929190610e51565b60405180910390a2505050565b600060048281548110610781576107806112bf565b5b9060005260206000200160009054906101000a900473ffffffffffffffffffffffffffffffffffffffff169050919050565b6000600360008373ffffffffffffffffffffffffffffffffffffffff1673ffffffffffffffffffffffffffffffffffffffff168152602001908152602001600020549050919050565b600080610807610970565b4761081291906111e1565b90506108278382610822866107b3565b610af4565b915050919050565b60008061083b84610927565b8473ffffffffffffffffffffffffffffffffffffffff166370a08231306040518263ffffffff1660e01b81526004016108749190611008565b602060405180830381865afa158015610891573d6000803e3d6000fd5b505050506040513d601f19601f820116820180604052508101906108b59190611303565b6108bf91906111e1565b90506108d583826108d087876104d0565b610af4565b91505092915050565b6000600260008373ffffffffffffffffffffffffffffffffffffffff1673ffffffffffffffffffffffffffffffffffffffff168152602001908152602001600020549050919050565b6000600560008373ffffffffffffffffffffffffffffffffffffffff1673ffffffffffffffffffffffffffffffffffffffff168152602001908152602001600020549050919050565b6000600154905090565b804710156109bd576040517f08c379a00000000000000000000000000000000000000000000000000000000081526004016109b49061137c565b60405180910390fd5b60008273ffffffffffffffffffffffffffffffffffffffff16826040516109e3906113cd565b60006040518083038185875af1925050503d8060008114610a20576040519150601f19603f3d011682016040523d82523d6000602084013e610a25565b606091505b5050905080610a69576040517f08c379a0000000000000000000000000000000000000000000000000000000008152600401610a6090611454565b60405180910390fd5b505050565b610aef8363a9059cbb60e01b8484604051602401610a8d929190610e51565b604051602081830303815290604052907bffffffffffffffffffffffffffffffffffffffffffffffffffffffff19166020820180517bffffffffffffffffffffffffffffffffffffffffffffffffffffffff8381831617835250505050610b62565b505050565b600081600054600260008773ffffffffffffffffffffffffffffffffffffffff1673ffffffffffffffffffffffffffffffffffffffff1681526020019081526020016000205485610b459190611474565b610b4f91906114fd565b610b59919061152e565b90509392505050565b6000610bc4826040518060400160405280602081526020017f5361666545524332303a206c6f772d6c6576656c2063616c6c206661696c65648152508573ffffffffffffffffffffffffffffffffffffffff16610c299092919063ffffffff16565b9050600081511115610c245780806020019051810190610be4919061159a565b610c23576040517f08c379a0000000000000000000000000000000000000000000000000000000008152600401610c1a90611639565b60405180910390fd5b5b505050565b6060610c388484600085610c41565b90509392505050565b606082471015610c86576040517f08c379a0000000000000000000000000000000000000000000000000000000008152600401610c7d906116cb565b60405180910390fd5b6000808673ffffffffffffffffffffffffffffffffffffffff168587604051610caf919061175a565b60006040518083038185875af1925050503d8060008114610cec576040519150601f19603f3d011682016040523d82523d6000602084013e610cf1565b606091505b5091509150610d0287838387610d0e565b92505050949350505050565b60608315610d7157600083511415610d6957610d2985610d84565b610d68576040517f08c379a0000000000000000000000000000000000000000000000000000000008152600401610d5f906117bd565b60405180910390fd5b5b829050610d7c565b610d7b8383610da7565b5b949350505050565b6000808273ffffffffffffffffffffffffffffffffffffffff163b119050919050565b600082511115610dba5781518083602001fd5b806040517f08c379a0000000000000000000000000000000000000000000000000000000008152600401610dee9190611832565b60405180910390fd5b600073ffffffffffffffffffffffffffffffffffffffff82169050919050565b6000610e2282610df7565b9050919050565b610e3281610e17565b82525050565b6000819050919050565b610e4b81610e38565b82525050565b6000604082019050610e666000830185610e29565b610e736020830184610e42565b9392505050565b600080fd5b6000610e8a82610df7565b9050919050565b610e9a81610e7f565b8114610ea557600080fd5b50565b600081359050610eb781610e91565b92915050565b600060208284031215610ed357610ed2610e7a565b5b6000610ee184828501610ea8565b91505092915050565b6000602082019050610eff6000830184610e42565b92915050565b6000610f1082610e17565b9050919050565b610f2081610f05565b8114610f2b57600080fd5b50565b600081359050610f3d81610f17565b92915050565b610f4c81610e17565b8114610f5757600080fd5b50565b600081359050610f6981610f43565b92915050565b60008060408385031215610f8657610f85610e7a565b5b6000610f9485828601610f2e565b9250506020610fa585828601610f5a565b9150509250929050565b610fb881610e38565b8114610fc357600080fd5b50565b600081359050610fd581610faf565b92915050565b600060208284031215610ff157610ff0610e7a565b5b6000610fff84828501610fc6565b91505092915050565b600060208201905061101d6000830184610e29565b92915050565b60006020828403121561103957611038610e7a565b5b600061104784828501610f5a565b91505092915050565b60006020828403121561106657611065610e7a565b5b600061107484828501610f2e565b91505092915050565b600082825260208201905092915050565b7f5061796d656e7453706c69747465723a206163636f756e7420686173206e6f2060008201527f7368617265730000000000000000000000000000000000000000000000000000602082015250565b60006110ea60268361107d565b91506110f58261108e565b604082019050919050565b60006020820190508181036000830152611119816110dd565b9050919050565b7f5061796d656e7453706c69747465723a206163636f756e74206973206e6f742060008201527f647565207061796d656e74000000000000000000000000000000000000000000602082015250565b600061117c602b8361107d565b915061118782611120565b604082019050919050565b600060208201905081810360008301526111ab8161116f565b9050919050565b7f4e487b7100000000000000000000000000000000000000000000000000000000600052601160045260246000fd5b60006111ec82610e38565b91506111f783610e38565b9250827fffffffffffffffffffffffffffffffffffffffffffffffffffffffffffffffff0382111561122c5761122b6111b2565b5b828201905092915050565b6000819050919050565b600061125c61125761125284610df7565b611237565b610df7565b9050919050565b600061126e82611241565b9050919050565b600061128082611263565b9050919050565b61129081611275565b82525050565b60006040820190506112ab6000830185611287565b6112b86020830184610e42565b9392505050565b7f4e487b7100000000000000000000000000000000000000000000000000000000600052603260045260246000fd5b6000815190506112fd81610faf565b92915050565b60006020828403121561131957611318610e7a565b5b6000611327848285016112ee565b91505092915050565b7f416464726573733a20696e73756666696369656e742062616c616e6365000000600082015250565b6000611366601d8361107d565b915061137182611330565b602082019050919050565b6000602082019050818103600083015261139581611359565b9050919050565b600081905092915050565b50565b60006113b760008361139c565b91506113c2826113a7565b600082019050919050565b60006113d8826113aa565b9150819050919050565b7f416464726573733a20756e61626c6520746f2073656e642076616c75652c207260008201527f6563697069656e74206d61792068617665207265766572746564000000000000602082015250565b600061143e603a8361107d565b9150611449826113e2565b604082019050919050565b6000602082019050818103600083015261146d81611431565b9050919050565b600061147f82610e38565b915061148a83610e38565b9250817fffffffffffffffffffffffffffffffffffffffffffffffffffffffffffffffff04831182151516156114c3576114c26111b2565b5b828202905092915050565b7f4e487b7100000000000000000000000000000000000000000000000000000000600052601260045260246000fd5b600061150882610e38565b915061151383610e38565b925082611523576115226114ce565b5b828204905092915050565b600061153982610e38565b915061154483610e38565b925082821015611557576115566111b2565b5b828203905092915050565b60008115159050919050565b61157781611562565b811461158257600080fd5b50565b6000815190506115948161156e565b92915050565b6000602082840312156115b0576115af610e7a565b5b60006115be84828501611585565b91505092915050565b7f5361666545524332303a204552433230206f7065726174696f6e20646964206e60008201527f6f74207375636365656400000000000000000000000000000000000000000000602082015250565b6000611623602a8361107d565b915061162e826115c7565b604082019050919050565b6000602082019050818103600083015261165281611616565b9050919050565b7f416464726573733a20696e73756666696369656e742062616c616e636520666f60008201527f722063616c6c0000000000000000000000000000000000000000000000000000602082015250565b60006116b560268361107d565b91506116c082611659565b604082019050919050565b600060208201905081810360008301526116e4816116a8565b9050919050565b600081519050919050565b60005b838110156117145780820151818401526020810190506116f9565b83811115611723576000848401525b50505050565b6000611734826116eb565b61173e818561139c565b935061174e8185602086016116f6565b80840191505092915050565b60006117668284611729565b915081905092915050565b7f416464726573733a2063616c6c20746f206e6f6e2d636f6e7472616374000000600082015250565b60006117a7601d8361107d565b91506117b282611771565b602082019050919050565b600060208201905081810360008301526117d68161179a565b9050919050565b600081519050919050565b6000601f19601f8301169050919050565b6000611804826117dd565b61180e818561107d565b935061181e8185602086016116f6565b611827816117e8565b840191505092915050565b6000602082019050818103600083015261184c81846117f9565b90509291505056fea2646970667358221220510650bdc124b80258a1a4a684f1c57b9d411c4162e903f8296453ab478eb2cd64736f6c634300080c0033","opcodes":"PUSH1 0x80 PUSH1 0x40 MSTORE PUSH1 0x40 MLOAD PUSH3 0x239C CODESIZE SUB DUP1 PUSH3 0x239C DUP4 CODECOPY DUP2 DUP2 ADD PUSH1 0x40 MSTORE DUP2 ADD SWAP1 PUSH3 0x29 SWAP2 SWAP1 PUSH3 0x668 JUMP JUMPDEST DUP1 MLOAD DUP3 MLOAD EQ PUSH3 0x70 JUMPI PUSH1 0x40 MLOAD PUSH32 0x8C379A000000000000000000000000000000000000000000000000000000000 DUP2 MSTORE PUSH1 0x4 ADD PUSH3 0x67 SWAP1 PUSH3 0x774 JUMP JUMPDEST PUSH1 0x40 MLOAD DUP1 SWAP2 SUB SWAP1 REVERT JUMPDEST PUSH1 0x0 DUP3 MLOAD GT PUSH3 0xB7 JUMPI PUSH1 0x40 MLOAD PUSH32 0x8C379A000000000000000000000000000000000000000000000000000000000 DUP2 MSTORE PUSH1 0x4 ADD PUSH3 0xAE SWAP1 PUSH3 0x7E6 JUMP JUMPDEST PUSH1 0x40 MLOAD DUP1 SWAP2 SUB SWAP1 REVERT JUMPDEST PUSH1 0x0 JUMPDEST DUP3 MLOAD DUP2 LT ISZERO PUSH3 0x126 JUMPI PUSH3 0x110 DUP4 DUP3 DUP2 MLOAD DUP2 LT PUSH3 0xDE JUMPI PUSH3 0xDD PUSH3 0x808 JUMP JUMPDEST JUMPDEST PUSH1 0x20 MUL PUSH1 0x20 ADD ADD MLOAD DUP4 DUP4 DUP2 MLOAD DUP2 LT PUSH3 0xFC JUMPI PUSH3 0xFB PUSH3 0x808 JUMP JUMPDEST JUMPDEST PUSH1 0x20 MUL PUSH1 0x20 ADD ADD MLOAD PUSH3 0x12F PUSH1 0x20 SHL PUSH1 0x20 SHR JUMP JUMPDEST DUP1 DUP1 PUSH3 0x11D SWAP1 PUSH3 0x866 JUMP JUMPDEST SWAP2 POP POP PUSH3 0xBA JUMP JUMPDEST POP POP POP PUSH3 0xB02 JUMP JUMPDEST PUSH1 0x0 PUSH20 0xFFFFFFFFFFFFFFFFFFFFFFFFFFFFFFFFFFFFFFFF AND DUP3 PUSH20 0xFFFFFFFFFFFFFFFFFFFFFFFFFFFFFFFFFFFFFFFF AND EQ ISZERO PUSH3 0x1A2 JUMPI PUSH1 0x40 MLOAD PUSH32 0x8C379A000000000000000000000000000000000000000000000000000000000 DUP2 MSTORE PUSH1 0x4 ADD PUSH3 0x199 SWAP1 PUSH3 0x92A JUMP JUMPDEST PUSH1 0x40 MLOAD DUP1 SWAP2 SUB SWAP1 REVERT JUMPDEST PUSH1 0x0 DUP2 GT PUSH3 0x1E8 JUMPI PUSH1 0x40 MLOAD PUSH32 0x8C379A000000000000000000000000000000000000000000000000000000000 DUP2 MSTORE PUSH1 0x4 ADD PUSH3 0x1DF SWAP1 PUSH3 0x99C JUMP JUMPDEST PUSH1 0x40 MLOAD DUP1 SWAP2 SUB SWAP1 REVERT JUMPDEST PUSH1 0x0 PUSH1 0x2 PUSH1 0x0 DUP5 PUSH20 0xFFFFFFFFFFFFFFFFFFFFFFFFFFFFFFFFFFFFFFFF AND PUSH20 0xFFFFFFFFFFFFFFFFFFFFFFFFFFFFFFFFFFFFFFFF AND DUP2 MSTORE PUSH1 0x20 ADD SWAP1 DUP2 MSTORE PUSH1 0x20 ADD PUSH1 0x0 KECCAK256 SLOAD EQ PUSH3 0x26D JUMPI PUSH1 0x40 MLOAD PUSH32 0x8C379A000000000000000000000000000000000000000000000000000000000 DUP2 MSTORE PUSH1 0x4 ADD PUSH3 0x264 SWAP1 PUSH3 0xA34 JUMP JUMPDEST PUSH1 0x40 MLOAD DUP1 SWAP2 SUB SWAP1 REVERT JUMPDEST PUSH1 0x4 DUP3 SWAP1 DUP1 PUSH1 0x1 DUP2 SLOAD ADD DUP1 DUP3 SSTORE DUP1 SWAP2 POP POP PUSH1 0x1 SWAP1 SUB SWAP1 PUSH1 0x0 MSTORE PUSH1 0x20 PUSH1 0x0 KECCAK256 ADD PUSH1 0x0 SWAP1 SWAP2 SWAP1 SWAP2 SWAP1 SWAP2 PUSH2 0x100 EXP DUP2 SLOAD DUP2 PUSH20 0xFFFFFFFFFFFFFFFFFFFFFFFFFFFFFFFFFFFFFFFF MUL NOT AND SWAP1 DUP4 PUSH20 0xFFFFFFFFFFFFFFFFFFFFFFFFFFFFFFFFFFFFFFFF AND MUL OR SWAP1 SSTORE POP DUP1 PUSH1 0x2 PUSH1 0x0 DUP5 PUSH20 0xFFFFFFFFFFFFFFFFFFFFFFFFFFFFFFFFFFFFFFFF AND PUSH20 0xFFFFFFFFFFFFFFFFFFFFFFFFFFFFFFFFFFFFFFFF AND DUP2 MSTORE PUSH1 0x20 ADD SWAP1 DUP2 MSTORE PUSH1 0x20 ADD PUSH1 0x0 KECCAK256 DUP2 SWAP1 SSTORE POP DUP1 PUSH1 0x0 SLOAD PUSH3 0x324 SWAP2 SWAP1 PUSH3 0xA56 JUMP JUMPDEST PUSH1 0x0 DUP2 SWAP1 SSTORE POP PUSH32 0x40C340F65E17194D14DDDDB073D3C9F888E3CB52B5AAE0C6C7706B4FBC905FAC DUP3 DUP3 PUSH1 0x40 MLOAD PUSH3 0x35D SWAP3 SWAP2 SWAP1 PUSH3 0xAD5 JUMP JUMPDEST PUSH1 0x40 MLOAD DUP1 SWAP2 SUB SWAP1 LOG1 POP POP JUMP JUMPDEST PUSH1 0x0 PUSH1 0x40 MLOAD SWAP1 POP SWAP1 JUMP JUMPDEST PUSH1 0x0 DUP1 REVERT JUMPDEST PUSH1 0x0 DUP1 REVERT JUMPDEST PUSH1 0x0 DUP1 REVERT JUMPDEST PUSH1 0x0 PUSH1 0x1F NOT PUSH1 0x1F DUP4 ADD AND SWAP1 POP SWAP2 SWAP1 POP JUMP JUMPDEST PUSH32 0x4E487B7100000000000000000000000000000000000000000000000000000000 PUSH1 0x0 MSTORE PUSH1 0x41 PUSH1 0x4 MSTORE PUSH1 0x24 PUSH1 0x0 REVERT JUMPDEST PUSH3 0x3CD DUP3 PUSH3 0x382 JUMP JUMPDEST DUP2 ADD DUP2 DUP2 LT PUSH8 0xFFFFFFFFFFFFFFFF DUP3 GT OR ISZERO PUSH3 0x3EF JUMPI PUSH3 0x3EE PUSH3 0x393 JUMP JUMPDEST JUMPDEST DUP1 PUSH1 0x40 MSTORE POP POP POP JUMP JUMPDEST PUSH1 0x0 PUSH3 0x404 PUSH3 0x369 JUMP JUMPDEST SWAP1 POP PUSH3 0x412 DUP3 DUP3 PUSH3 0x3C2 JUMP JUMPDEST SWAP2 SWAP1 POP JUMP JUMPDEST PUSH1 0x0 PUSH8 0xFFFFFFFFFFFFFFFF DUP3 GT ISZERO PUSH3 0x435 JUMPI PUSH3 0x434 PUSH3 0x393 JUMP JUMPDEST JUMPDEST PUSH1 0x20 DUP3 MUL SWAP1 POP PUSH1 0x20 DUP2 ADD SWAP1 POP SWAP2 SWAP1 POP JUMP JUMPDEST PUSH1 0x0 DUP1 REVERT JUMPDEST PUSH1 0x0 PUSH20 0xFFFFFFFFFFFFFFFFFFFFFFFFFFFFFFFFFFFFFFFF DUP3 AND SWAP1 POP SWAP2 SWAP1 POP JUMP JUMPDEST PUSH1 0x0 PUSH3 0x478 DUP3 PUSH3 0x44B JUMP JUMPDEST SWAP1 POP SWAP2 SWAP1 POP JUMP JUMPDEST PUSH3 0x48A DUP2 PUSH3 0x46B JUMP JUMPDEST DUP2 EQ PUSH3 0x496 JUMPI PUSH1 0x0 DUP1 REVERT JUMPDEST POP JUMP JUMPDEST PUSH1 0x0 DUP2 MLOAD SWAP1 POP PUSH3 0x4AA DUP2 PUSH3 0x47F JUMP JUMPDEST SWAP3 SWAP2 POP POP JUMP JUMPDEST PUSH1 0x0 PUSH3 0x4C7 PUSH3 0x4C1 DUP5 PUSH3 0x417 JUMP JUMPDEST PUSH3 0x3F8 JUMP JUMPDEST SWAP1 POP DUP1 DUP4 DUP3 MSTORE PUSH1 0x20 DUP3 ADD SWAP1 POP PUSH1 0x20 DUP5 MUL DUP4 ADD DUP6 DUP2 GT ISZERO PUSH3 0x4ED JUMPI PUSH3 0x4EC PUSH3 0x446 JUMP JUMPDEST JUMPDEST DUP4 JUMPDEST DUP2 DUP2 LT ISZERO PUSH3 0x51A JUMPI DUP1 PUSH3 0x505 DUP9 DUP3 PUSH3 0x499 JUMP JUMPDEST DUP5 MSTORE PUSH1 0x20 DUP5 ADD SWAP4 POP POP PUSH1 0x20 DUP2 ADD SWAP1 POP PUSH3 0x4EF JUMP JUMPDEST POP POP POP SWAP4 SWAP3 POP POP POP JUMP JUMPDEST PUSH1 0x0 DUP3 PUSH1 0x1F DUP4 ADD SLT PUSH3 0x53C JUMPI PUSH3 0x53B PUSH3 0x37D JUMP JUMPDEST JUMPDEST DUP2 MLOAD PUSH3 0x54E DUP5 DUP3 PUSH1 0x20 DUP7 ADD PUSH3 0x4B0 JUMP JUMPDEST SWAP2 POP POP SWAP3 SWAP2 POP POP JUMP JUMPDEST PUSH1 0x0 PUSH8 0xFFFFFFFFFFFFFFFF DUP3 GT ISZERO PUSH3 0x575 JUMPI PUSH3 0x574 PUSH3 0x393 JUMP JUMPDEST JUMPDEST PUSH1 0x20 DUP3 MUL SWAP1 POP PUSH1 0x20 DUP2 ADD SWAP1 POP SWAP2 SWAP1 POP JUMP JUMPDEST PUSH1 0x0 DUP2 SWAP1 POP SWAP2 SWAP1 POP JUMP JUMPDEST PUSH3 0x59B DUP2 PUSH3 0x586 JUMP JUMPDEST DUP2 EQ PUSH3 0x5A7 JUMPI PUSH1 0x0 DUP1 REVERT JUMPDEST POP JUMP JUMPDEST PUSH1 0x0 DUP2 MLOAD SWAP1 POP PUSH3 0x5BB DUP2 PUSH3 0x590 JUMP JUMPDEST SWAP3 SWAP2 POP POP JUMP JUMPDEST PUSH1 0x0 PUSH3 0x5D8 PUSH3 0x5D2 DUP5 PUSH3 0x557 JUMP JUMPDEST PUSH3 0x3F8 JUMP JUMPDEST SWAP1 POP DUP1 DUP4 DUP3 MSTORE PUSH1 0x20 DUP3 ADD SWAP1 POP PUSH1 0x20 DUP5 MUL DUP4 ADD DUP6 DUP2 GT ISZERO PUSH3 0x5FE JUMPI PUSH3 0x5FD PUSH3 0x446 JUMP JUMPDEST JUMPDEST DUP4 JUMPDEST DUP2 DUP2 LT ISZERO PUSH3 0x62B JUMPI DUP1 PUSH3 0x616 DUP9 DUP3 PUSH3 0x5AA JUMP JUMPDEST DUP5 MSTORE PUSH1 0x20 DUP5 ADD SWAP4 POP POP PUSH1 0x20 DUP2 ADD SWAP1 POP PUSH3 0x600 JUMP JUMPDEST POP POP POP SWAP4 SWAP3 POP POP POP JUMP JUMPDEST PUSH1 0x0 DUP3 PUSH1 0x1F DUP4 ADD SLT PUSH3 0x64D JUMPI PUSH3 0x64C PUSH3 0x37D JUMP JUMPDEST JUMPDEST DUP2 MLOAD PUSH3 0x65F DUP5 DUP3 PUSH1 0x20 DUP7 ADD PUSH3 0x5C1 JUMP JUMPDEST SWAP2 POP POP SWAP3 SWAP2 POP POP JUMP JUMPDEST PUSH1 0x0 DUP1 PUSH1 0x40 DUP4 DUP6 SUB SLT ISZERO PUSH3 0x682 JUMPI PUSH3 0x681 PUSH3 0x373 JUMP JUMPDEST JUMPDEST PUSH1 0x0 DUP4 ADD MLOAD PUSH8 0xFFFFFFFFFFFFFFFF DUP2 GT ISZERO PUSH3 0x6A3 JUMPI PUSH3 0x6A2 PUSH3 0x378 JUMP JUMPDEST JUMPDEST PUSH3 0x6B1 DUP6 DUP3 DUP7 ADD PUSH3 0x524 JUMP JUMPDEST SWAP3 POP POP PUSH1 0x20 DUP4 ADD MLOAD PUSH8 0xFFFFFFFFFFFFFFFF DUP2 GT ISZERO PUSH3 0x6D5 JUMPI PUSH3 0x6D4 PUSH3 0x378 JUMP JUMPDEST JUMPDEST PUSH3 0x6E3 DUP6 DUP3 DUP7 ADD PUSH3 0x635 JUMP JUMPDEST SWAP2 POP POP SWAP3 POP SWAP3 SWAP1 POP JUMP JUMPDEST PUSH1 0x0 DUP3 DUP3 MSTORE PUSH1 0x20 DUP3 ADD SWAP1 POP SWAP3 SWAP2 POP POP JUMP JUMPDEST PUSH32 0x5061796D656E7453706C69747465723A2070617965657320616E642073686172 PUSH1 0x0 DUP3 ADD MSTORE PUSH32 0x6573206C656E677468206D69736D617463680000000000000000000000000000 PUSH1 0x20 DUP3 ADD MSTORE POP JUMP JUMPDEST PUSH1 0x0 PUSH3 0x75C PUSH1 0x32 DUP4 PUSH3 0x6ED JUMP JUMPDEST SWAP2 POP PUSH3 0x769 DUP3 PUSH3 0x6FE JUMP JUMPDEST PUSH1 0x40 DUP3 ADD SWAP1 POP SWAP2 SWAP1 POP JUMP JUMPDEST PUSH1 0x0 PUSH1 0x20 DUP3 ADD SWAP1 POP DUP2 DUP2 SUB PUSH1 0x0 DUP4 ADD MSTORE PUSH3 0x78F DUP2 PUSH3 0x74D JUMP JUMPDEST SWAP1 POP SWAP2 SWAP1 POP JUMP JUMPDEST PUSH32 0x5061796D656E7453706C69747465723A206E6F20706179656573000000000000 PUSH1 0x0 DUP3 ADD MSTORE POP JUMP JUMPDEST PUSH1 0x0 PUSH3 0x7CE PUSH1 0x1A DUP4 PUSH3 0x6ED JUMP JUMPDEST SWAP2 POP PUSH3 0x7DB DUP3 PUSH3 0x796 JUMP JUMPDEST PUSH1 0x20 DUP3 ADD SWAP1 POP SWAP2 SWAP1 POP JUMP JUMPDEST PUSH1 0x0 PUSH1 0x20 DUP3 ADD SWAP1 POP DUP2 DUP2 SUB PUSH1 0x0 DUP4 ADD MSTORE PUSH3 0x801 DUP2 PUSH3 0x7BF JUMP JUMPDEST SWAP1 POP SWAP2 SWAP1 POP JUMP JUMPDEST PUSH32 0x4E487B7100000000000000000000000000000000000000000000000000000000 PUSH1 0x0 MSTORE PUSH1 0x32 PUSH1 0x4 MSTORE PUSH1 0x24 PUSH1 0x0 REVERT JUMPDEST PUSH32 0x4E487B7100000000000000000000000000000000000000000000000000000000 PUSH1 0x0 MSTORE PUSH1 0x11 PUSH1 0x4 MSTORE PUSH1 0x24 PUSH1 0x0 REVERT JUMPDEST PUSH1 0x0 PUSH3 0x873 DUP3 PUSH3 0x586 JUMP JUMPDEST SWAP2 POP PUSH32 0xFFFFFFFFFFFFFFFFFFFFFFFFFFFFFFFFFFFFFFFFFFFFFFFFFFFFFFFFFFFFFFFF DUP3 EQ ISZERO PUSH3 0x8A9 JUMPI PUSH3 0x8A8 PUSH3 0x837 JUMP JUMPDEST JUMPDEST PUSH1 0x1 DUP3 ADD SWAP1 POP SWAP2 SWAP1 POP JUMP JUMPDEST PUSH32 0x5061796D656E7453706C69747465723A206163636F756E742069732074686520 PUSH1 0x0 DUP3 ADD MSTORE PUSH32 0x7A65726F20616464726573730000000000000000000000000000000000000000 PUSH1 0x20 DUP3 ADD MSTORE POP JUMP JUMPDEST PUSH1 0x0 PUSH3 0x912 PUSH1 0x2C DUP4 PUSH3 0x6ED JUMP JUMPDEST SWAP2 POP PUSH3 0x91F DUP3 PUSH3 0x8B4 JUMP JUMPDEST PUSH1 0x40 DUP3 ADD SWAP1 POP SWAP2 SWAP1 POP JUMP JUMPDEST PUSH1 0x0 PUSH1 0x20 DUP3 ADD SWAP1 POP DUP2 DUP2 SUB PUSH1 0x0 DUP4 ADD MSTORE PUSH3 0x945 DUP2 PUSH3 0x903 JUMP JUMPDEST SWAP1 POP SWAP2 SWAP1 POP JUMP JUMPDEST PUSH32 0x5061796D656E7453706C69747465723A20736861726573206172652030000000 PUSH1 0x0 DUP3 ADD MSTORE POP JUMP JUMPDEST PUSH1 0x0 PUSH3 0x984 PUSH1 0x1D DUP4 PUSH3 0x6ED JUMP JUMPDEST SWAP2 POP PUSH3 0x991 DUP3 PUSH3 0x94C JUMP JUMPDEST PUSH1 0x20 DUP3 ADD SWAP1 POP SWAP2 SWAP1 POP JUMP JUMPDEST PUSH1 0x0 PUSH1 0x20 DUP3 ADD SWAP1 POP DUP2 DUP2 SUB PUSH1 0x0 DUP4 ADD MSTORE PUSH3 0x9B7 DUP2 PUSH3 0x975 JUMP JUMPDEST SWAP1 POP SWAP2 SWAP1 POP JUMP JUMPDEST PUSH32 0x5061796D656E7453706C69747465723A206163636F756E7420616C7265616479 PUSH1 0x0 DUP3 ADD MSTORE PUSH32 0x2068617320736861726573000000000000000000000000000000000000000000 PUSH1 0x20 DUP3 ADD MSTORE POP JUMP JUMPDEST PUSH1 0x0 PUSH3 0xA1C PUSH1 0x2B DUP4 PUSH3 0x6ED JUMP JUMPDEST SWAP2 POP PUSH3 0xA29 DUP3 PUSH3 0x9BE JUMP JUMPDEST PUSH1 0x40 DUP3 ADD SWAP1 POP SWAP2 SWAP1 POP JUMP JUMPDEST PUSH1 0x0 PUSH1 0x20 DUP3 ADD SWAP1 POP DUP2 DUP2 SUB PUSH1 0x0 DUP4 ADD MSTORE PUSH3 0xA4F DUP2 PUSH3 0xA0D JUMP JUMPDEST SWAP1 POP SWAP2 SWAP1 POP JUMP JUMPDEST PUSH1 0x0 PUSH3 0xA63 DUP3 PUSH3 0x586 JUMP JUMPDEST SWAP2 POP PUSH3 0xA70 DUP4 PUSH3 0x586 JUMP JUMPDEST SWAP3 POP DUP3 PUSH32 0xFFFFFFFFFFFFFFFFFFFFFFFFFFFFFFFFFFFFFFFFFFFFFFFFFFFFFFFFFFFFFFFF SUB DUP3 GT ISZERO PUSH3 0xAA8 JUMPI PUSH3 0xAA7 PUSH3 0x837 JUMP JUMPDEST JUMPDEST DUP3 DUP3 ADD SWAP1 POP SWAP3 SWAP2 POP POP JUMP JUMPDEST PUSH3 0xABE DUP2 PUSH3 0x46B JUMP JUMPDEST DUP3 MSTORE POP POP JUMP JUMPDEST PUSH3 0xACF DUP2 PUSH3 0x586 JUMP JUMPDEST DUP3 MSTORE POP POP JUMP JUMPDEST PUSH1 0x0 PUSH1 0x40 DUP3 ADD SWAP1 POP PUSH3 0xAEC PUSH1 0x0 DUP4 ADD DUP6 PUSH3 0xAB3 JUMP JUMPDEST PUSH3 0xAFB PUSH1 0x20 DUP4 ADD DUP5 PUSH3 0xAC4 JUMP JUMPDEST SWAP4 SWAP3 POP POP POP JUMP JUMPDEST PUSH2 0x188A DUP1 PUSH3 0xB12 PUSH1 0x0 CODECOPY PUSH1 0x0 RETURN INVALID PUSH1 0x80 PUSH1 0x40 MSTORE PUSH1 0x4 CALLDATASIZE LT PUSH2 0xA0 JUMPI PUSH1 0x0 CALLDATALOAD PUSH1 0xE0 SHR DUP1 PUSH4 0x9852595C GT PUSH2 0x64 JUMPI DUP1 PUSH4 0x9852595C EQ PUSH2 0x1E3 JUMPI DUP1 PUSH4 0xA3F8EACE EQ PUSH2 0x220 JUMPI DUP1 PUSH4 0xC45AC050 EQ PUSH2 0x25D JUMPI DUP1 PUSH4 0xCE7C2AC2 EQ PUSH2 0x29A JUMPI DUP1 PUSH4 0xD79779B2 EQ PUSH2 0x2D7 JUMPI DUP1 PUSH4 0xE33B7DE3 EQ PUSH2 0x314 JUMPI PUSH2 0xE7 JUMP JUMPDEST DUP1 PUSH4 0x19165587 EQ PUSH2 0xEC JUMPI DUP1 PUSH4 0x3A98EF39 EQ PUSH2 0x115 JUMPI DUP1 PUSH4 0x406072A9 EQ PUSH2 0x140 JUMPI DUP1 PUSH4 0x48B75044 EQ PUSH2 0x17D JUMPI DUP1 PUSH4 0x8B83209B EQ PUSH2 0x1A6 JUMPI PUSH2 0xE7 JUMP JUMPDEST CALLDATASIZE PUSH2 0xE7 JUMPI PUSH32 0x6EF95F06320E7A25A04A175CA677B7052BDD97131872C2192525A629F51BE770 PUSH2 0xCE PUSH2 0x33F JUMP JUMPDEST CALLVALUE PUSH1 0x40 MLOAD PUSH2 0xDD SWAP3 SWAP2 SWAP1 PUSH2 0xE51 JUMP JUMPDEST PUSH1 0x40 MLOAD DUP1 SWAP2 SUB SWAP1 LOG1 STOP JUMPDEST PUSH1 0x0 DUP1 REVERT JUMPDEST CALLVALUE DUP1 ISZERO PUSH2 0xF8 JUMPI PUSH1 0x0 DUP1 REVERT JUMPDEST POP PUSH2 0x113 PUSH1 0x4 DUP1 CALLDATASIZE SUB DUP2 ADD SWAP1 PUSH2 0x10E SWAP2 SWAP1 PUSH2 0xEBD JUMP JUMPDEST PUSH2 0x347 JUMP JUMPDEST STOP JUMPDEST CALLVALUE DUP1 ISZERO PUSH2 0x121 JUMPI PUSH1 0x0 DUP1 REVERT JUMPDEST POP PUSH2 0x12A PUSH2 0x4C7 JUMP JUMPDEST PUSH1 0x40 MLOAD PUSH2 0x137 SWAP2 SWAP1 PUSH2 0xEEA JUMP JUMPDEST PUSH1 0x40 MLOAD DUP1 SWAP2 SUB SWAP1 RETURN JUMPDEST CALLVALUE DUP1 ISZERO PUSH2 0x14C JUMPI PUSH1 0x0 DUP1 REVERT JUMPDEST POP PUSH2 0x167 PUSH1 0x4 DUP1 CALLDATASIZE SUB DUP2 ADD SWAP1 PUSH2 0x162 SWAP2 SWAP1 PUSH2 0xF6F JUMP JUMPDEST PUSH2 0x4D0 JUMP JUMPDEST PUSH1 0x40 MLOAD PUSH2 0x174 SWAP2 SWAP1 PUSH2 0xEEA JUMP JUMPDEST PUSH1 0x40 MLOAD DUP1 SWAP2 SUB SWAP1 RETURN JUMPDEST CALLVALUE DUP1 ISZERO PUSH2 0x189 JUMPI PUSH1 0x0 DUP1 REVERT JUMPDEST POP PUSH2 0x1A4 PUSH1 0x4 DUP1 CALLDATASIZE SUB DUP2 ADD SWAP1 PUSH2 0x19F SWAP2 SWAP1 PUSH2 0xF6F JUMP JUMPDEST PUSH2 0x557 JUMP JUMPDEST STOP JUMPDEST CALLVALUE DUP1 ISZERO PUSH2 0x1B2 JUMPI PUSH1 0x0 DUP1 REVERT JUMPDEST POP PUSH2 0x1CD PUSH1 0x4 DUP1 CALLDATASIZE SUB DUP2 ADD SWAP1 PUSH2 0x1C8 SWAP2 SWAP1 PUSH2 0xFDB JUMP JUMPDEST PUSH2 0x76B JUMP JUMPDEST PUSH1 0x40 MLOAD PUSH2 0x1DA SWAP2 SWAP1 PUSH2 0x1008 JUMP JUMPDEST PUSH1 0x40 MLOAD DUP1 SWAP2 SUB SWAP1 RETURN JUMPDEST CALLVALUE DUP1 ISZERO PUSH2 0x1EF JUMPI PUSH1 0x0 DUP1 REVERT JUMPDEST POP PUSH2 0x20A PUSH1 0x4 DUP1 CALLDATASIZE SUB DUP2 ADD SWAP1 PUSH2 0x205 SWAP2 SWAP1 PUSH2 0x1023 JUMP JUMPDEST PUSH2 0x7B3 JUMP JUMPDEST PUSH1 0x40 MLOAD PUSH2 0x217 SWAP2 SWAP1 PUSH2 0xEEA JUMP JUMPDEST PUSH1 0x40 MLOAD DUP1 SWAP2 SUB SWAP1 RETURN JUMPDEST CALLVALUE DUP1 ISZERO PUSH2 0x22C JUMPI PUSH1 0x0 DUP1 REVERT JUMPDEST POP PUSH2 0x247 PUSH1 0x4 DUP1 CALLDATASIZE SUB DUP2 ADD SWAP1 PUSH2 0x242 SWAP2 SWAP1 PUSH2 0x1023 JUMP JUMPDEST PUSH2 0x7FC JUMP JUMPDEST PUSH1 0x40 MLOAD PUSH2 0x254 SWAP2 SWAP1 PUSH2 0xEEA JUMP JUMPDEST PUSH1 0x40 MLOAD DUP1 SWAP2 SUB SWAP1 RETURN JUMPDEST CALLVALUE DUP1 ISZERO PUSH2 0x269 JUMPI PUSH1 0x0 DUP1 REVERT JUMPDEST POP PUSH2 0x284 PUSH1 0x4 DUP1 CALLDATASIZE SUB DUP2 ADD SWAP1 PUSH2 0x27F SWAP2 SWAP1 PUSH2 0xF6F JUMP JUMPDEST PUSH2 0x82F JUMP JUMPDEST PUSH1 0x40 MLOAD PUSH2 0x291 SWAP2 SWAP1 PUSH2 0xEEA JUMP JUMPDEST PUSH1 0x40 MLOAD DUP1 SWAP2 SUB SWAP1 RETURN JUMPDEST CALLVALUE DUP1 ISZERO PUSH2 0x2A6 JUMPI PUSH1 0x0 DUP1 REVERT JUMPDEST POP PUSH2 0x2C1 PUSH1 0x4 DUP1 CALLDATASIZE SUB DUP2 ADD SWAP1 PUSH2 0x2BC SWAP2 SWAP1 PUSH2 0x1023 JUMP JUMPDEST PUSH2 0x8DE JUMP JUMPDEST PUSH1 0x40 MLOAD PUSH2 0x2CE SWAP2 SWAP1 PUSH2 0xEEA JUMP JUMPDEST PUSH1 0x40 MLOAD DUP1 SWAP2 SUB SWAP1 RETURN JUMPDEST CALLVALUE DUP1 ISZERO PUSH2 0x2E3 JUMPI PUSH1 0x0 DUP1 REVERT JUMPDEST POP PUSH2 0x2FE PUSH1 0x4 DUP1 CALLDATASIZE SUB DUP2 ADD SWAP1 PUSH2 0x2F9 SWAP2 SWAP1 PUSH2 0x1050 JUMP JUMPDEST PUSH2 0x927 JUMP JUMPDEST PUSH1 0x40 MLOAD PUSH2 0x30B SWAP2 SWAP1 PUSH2 0xEEA JUMP JUMPDEST PUSH1 0x40 MLOAD DUP1 SWAP2 SUB SWAP1 RETURN JUMPDEST CALLVALUE DUP1 ISZERO PUSH2 0x320 JUMPI PUSH1 0x0 DUP1 REVERT JUMPDEST POP PUSH2 0x329 PUSH2 0x970 JUMP JUMPDEST PUSH1 0x40 MLOAD PUSH2 0x336 SWAP2 SWAP1 PUSH2 0xEEA JUMP JUMPDEST PUSH1 0x40 MLOAD DUP1 SWAP2 SUB SWAP1 RETURN JUMPDEST PUSH1 0x0 CALLER SWAP1 POP SWAP1 JUMP JUMPDEST PUSH1 0x0 PUSH1 0x2 PUSH1 0x0 DUP4 PUSH20 0xFFFFFFFFFFFFFFFFFFFFFFFFFFFFFFFFFFFFFFFF AND PUSH20 0xFFFFFFFFFFFFFFFFFFFFFFFFFFFFFFFFFFFFFFFF AND DUP2 MSTORE PUSH1 0x20 ADD SWAP1 DUP2 MSTORE PUSH1 0x20 ADD PUSH1 0x0 KECCAK256 SLOAD GT PUSH2 0x3C9 JUMPI PUSH1 0x40 MLOAD PUSH32 0x8C379A000000000000000000000000000000000000000000000000000000000 DUP2 MSTORE PUSH1 0x4 ADD PUSH2 0x3C0 SWAP1 PUSH2 0x1100 JUMP JUMPDEST PUSH1 0x40 MLOAD DUP1 SWAP2 SUB SWAP1 REVERT JUMPDEST PUSH1 0x0 PUSH2 0x3D4 DUP3 PUSH2 0x7FC JUMP JUMPDEST SWAP1 POP PUSH1 0x0 DUP2 EQ ISZERO PUSH2 0x41A JUMPI PUSH1 0x40 MLOAD PUSH32 0x8C379A000000000000000000000000000000000000000000000000000000000 DUP2 MSTORE PUSH1 0x4 ADD PUSH2 0x411 SWAP1 PUSH2 0x1192 JUMP JUMPDEST PUSH1 0x40 MLOAD DUP1 SWAP2 SUB SWAP1 REVERT JUMPDEST DUP1 PUSH1 0x1 PUSH1 0x0 DUP3 DUP3 SLOAD PUSH2 0x42C SWAP2 SWAP1 PUSH2 0x11E1 JUMP JUMPDEST SWAP3 POP POP DUP2 SWAP1 SSTORE POP DUP1 PUSH1 0x3 PUSH1 0x0 DUP5 PUSH20 0xFFFFFFFFFFFFFFFFFFFFFFFFFFFFFFFFFFFFFFFF AND PUSH20 0xFFFFFFFFFFFFFFFFFFFFFFFFFFFFFFFFFFFFFFFF AND DUP2 MSTORE PUSH1 0x20 ADD SWAP1 DUP2 MSTORE PUSH1 0x20 ADD PUSH1 0x0 KECCAK256 PUSH1 0x0 DUP3 DUP3 SLOAD ADD SWAP3 POP POP DUP2 SWAP1 SSTORE POP PUSH2 0x48A DUP3 DUP3 PUSH2 0x97A JUMP JUMPDEST PUSH32 0xDF20FD1E76BC69D672E4814FAFB2C449BBA3A5369D8359ADF9E05E6FDE87B056 DUP3 DUP3 PUSH1 0x40 MLOAD PUSH2 0x4BB SWAP3 SWAP2 SWAP1 PUSH2 0x1296 JUMP JUMPDEST PUSH1 0x40 MLOAD DUP1 SWAP2 SUB SWAP1 LOG1 POP POP JUMP JUMPDEST PUSH1 0x0 DUP1 SLOAD SWAP1 POP SWAP1 JUMP JUMPDEST PUSH1 0x0 PUSH1 0x6 PUSH1 0x0 DUP5 PUSH20 0xFFFFFFFFFFFFFFFFFFFFFFFFFFFFFFFFFFFFFFFF AND PUSH20 0xFFFFFFFFFFFFFFFFFFFFFFFFFFFFFFFFFFFFFFFF AND DUP2 MSTORE PUSH1 0x20 ADD SWAP1 DUP2 MSTORE PUSH1 0x20 ADD PUSH1 0x0 KECCAK256 PUSH1 0x0 DUP4 PUSH20 0xFFFFFFFFFFFFFFFFFFFFFFFFFFFFFFFFFFFFFFFF AND PUSH20 0xFFFFFFFFFFFFFFFFFFFFFFFFFFFFFFFFFFFFFFFF AND DUP2 MSTORE PUSH1 0x20 ADD SWAP1 DUP2 MSTORE PUSH1 0x20 ADD PUSH1 0x0 KECCAK256 SLOAD SWAP1 POP SWAP3 SWAP2 POP POP JUMP JUMPDEST PUSH1 0x0 PUSH1 0x2 PUSH1 0x0 DUP4 PUSH20 0xFFFFFFFFFFFFFFFFFFFFFFFFFFFFFFFFFFFFFFFF AND PUSH20 0xFFFFFFFFFFFFFFFFFFFFFFFFFFFFFFFFFFFFFFFF AND DUP2 MSTORE PUSH1 0x20 ADD SWAP1 DUP2 MSTORE PUSH1 0x20 ADD PUSH1 0x0 KECCAK256 SLOAD GT PUSH2 0x5D9 JUMPI PUSH1 0x40 MLOAD PUSH32 0x8C379A000000000000000000000000000000000000000000000000000000000 DUP2 MSTORE PUSH1 0x4 ADD PUSH2 0x5D0 SWAP1 PUSH2 0x1100 JUMP JUMPDEST PUSH1 0x40 MLOAD DUP1 SWAP2 SUB SWAP1 REVERT JUMPDEST PUSH1 0x0 PUSH2 0x5E5 DUP4 DUP4 PUSH2 0x82F JUMP JUMPDEST SWAP1 POP PUSH1 0x0 DUP2 EQ ISZERO PUSH2 0x62B JUMPI PUSH1 0x40 MLOAD PUSH32 0x8C379A000000000000000000000000000000000000000000000000000000000 DUP2 MSTORE PUSH1 0x4 ADD PUSH2 0x622 SWAP1 PUSH2 0x1192 JUMP JUMPDEST PUSH1 0x40 MLOAD DUP1 SWAP2 SUB SWAP1 REVERT JUMPDEST DUP1 PUSH1 0x5 PUSH1 0x0 DUP6 PUSH20 0xFFFFFFFFFFFFFFFFFFFFFFFFFFFFFFFFFFFFFFFF AND PUSH20 0xFFFFFFFFFFFFFFFFFFFFFFFFFFFFFFFFFFFFFFFF AND DUP2 MSTORE PUSH1 0x20 ADD SWAP1 DUP2 MSTORE PUSH1 0x20 ADD PUSH1 0x0 KECCAK256 PUSH1 0x0 DUP3 DUP3 SLOAD PUSH2 0x67A SWAP2 SWAP1 PUSH2 0x11E1 JUMP JUMPDEST SWAP3 POP POP DUP2 SWAP1 SSTORE POP DUP1 PUSH1 0x6 PUSH1 0x0 DUP6 PUSH20 0xFFFFFFFFFFFFFFFFFFFFFFFFFFFFFFFFFFFFFFFF AND PUSH20 0xFFFFFFFFFFFFFFFFFFFFFFFFFFFFFFFFFFFFFFFF AND DUP2 MSTORE PUSH1 0x20 ADD SWAP1 DUP2 MSTORE PUSH1 0x20 ADD PUSH1 0x0 KECCAK256 PUSH1 0x0 DUP5 PUSH20 0xFFFFFFFFFFFFFFFFFFFFFFFFFFFFFFFFFFFFFFFF AND PUSH20 0xFFFFFFFFFFFFFFFFFFFFFFFFFFFFFFFFFFFFFFFF AND DUP2 MSTORE PUSH1 0x20 ADD SWAP1 DUP2 MSTORE PUSH1 0x20 ADD PUSH1 0x0 KECCAK256 PUSH1 0x0 DUP3 DUP3 SLOAD ADD SWAP3 POP POP DUP2 SWAP1 SSTORE POP PUSH2 0x716 DUP4 DUP4 DUP4 PUSH2 0xA6E JUMP JUMPDEST DUP3 PUSH20 0xFFFFFFFFFFFFFFFFFFFFFFFFFFFFFFFFFFFFFFFF AND PUSH32 0x3BE5B7A71E84ED12875D241991C70855AC5817D847039E17A9D895C1CEB0F18A DUP4 DUP4 PUSH1 0x40 MLOAD PUSH2 0x75E SWAP3 SWAP2 SWAP1 PUSH2 0xE51 JUMP JUMPDEST PUSH1 0x40 MLOAD DUP1 SWAP2 SUB SWAP1 LOG2 POP POP POP JUMP JUMPDEST PUSH1 0x0 PUSH1 0x4 DUP3 DUP2 SLOAD DUP2 LT PUSH2 0x781 JUMPI PUSH2 0x780 PUSH2 0x12BF JUMP JUMPDEST JUMPDEST SWAP1 PUSH1 0x0 MSTORE PUSH1 0x20 PUSH1 0x0 KECCAK256 ADD PUSH1 0x0 SWAP1 SLOAD SWAP1 PUSH2 0x100 EXP SWAP1 DIV PUSH20 0xFFFFFFFFFFFFFFFFFFFFFFFFFFFFFFFFFFFFFFFF AND SWAP1 POP SWAP2 SWAP1 POP JUMP JUMPDEST PUSH1 0x0 PUSH1 0x3 PUSH1 0x0 DUP4 PUSH20 0xFFFFFFFFFFFFFFFFFFFFFFFFFFFFFFFFFFFFFFFF AND PUSH20 0xFFFFFFFFFFFFFFFFFFFFFFFFFFFFFFFFFFFFFFFF AND DUP2 MSTORE PUSH1 0x20 ADD SWAP1 DUP2 MSTORE PUSH1 0x20 ADD PUSH1 0x0 KECCAK256 SLOAD SWAP1 POP SWAP2 SWAP1 POP JUMP JUMPDEST PUSH1 0x0 DUP1 PUSH2 0x807 PUSH2 0x970 JUMP JUMPDEST SELFBALANCE PUSH2 0x812 SWAP2 SWAP1 PUSH2 0x11E1 JUMP JUMPDEST SWAP1 POP PUSH2 0x827 DUP4 DUP3 PUSH2 0x822 DUP7 PUSH2 0x7B3 JUMP JUMPDEST PUSH2 0xAF4 JUMP JUMPDEST SWAP2 POP POP SWAP2 SWAP1 POP JUMP JUMPDEST PUSH1 0x0 DUP1 PUSH2 0x83B DUP5 PUSH2 0x927 JUMP JUMPDEST DUP5 PUSH20 0xFFFFFFFFFFFFFFFFFFFFFFFFFFFFFFFFFFFFFFFF AND PUSH4 0x70A08231 ADDRESS PUSH1 0x40 MLOAD DUP3 PUSH4 0xFFFFFFFF AND PUSH1 0xE0 SHL DUP2 MSTORE PUSH1 0x4 ADD PUSH2 0x874 SWAP2 SWAP1 PUSH2 0x1008 JUMP JUMPDEST PUSH1 0x20 PUSH1 0x40 MLOAD DUP1 DUP4 SUB DUP2 DUP7 GAS STATICCALL ISZERO DUP1 ISZERO PUSH2 0x891 JUMPI RETURNDATASIZE PUSH1 0x0 DUP1 RETURNDATACOPY RETURNDATASIZE PUSH1 0x0 REVERT JUMPDEST POP POP POP POP PUSH1 0x40 MLOAD RETURNDATASIZE PUSH1 0x1F NOT PUSH1 0x1F DUP3 ADD AND DUP3 ADD DUP1 PUSH1 0x40 MSTORE POP DUP2 ADD SWAP1 PUSH2 0x8B5 SWAP2 SWAP1 PUSH2 0x1303 JUMP JUMPDEST PUSH2 0x8BF SWAP2 SWAP1 PUSH2 0x11E1 JUMP JUMPDEST SWAP1 POP PUSH2 0x8D5 DUP4 DUP3 PUSH2 0x8D0 DUP8 DUP8 PUSH2 0x4D0 JUMP JUMPDEST PUSH2 0xAF4 JUMP JUMPDEST SWAP2 POP POP SWAP3 SWAP2 POP POP JUMP JUMPDEST PUSH1 0x0 PUSH1 0x2 PUSH1 0x0 DUP4 PUSH20 0xFFFFFFFFFFFFFFFFFFFFFFFFFFFFFFFFFFFFFFFF AND PUSH20 0xFFFFFFFFFFFFFFFFFFFFFFFFFFFFFFFFFFFFFFFF AND DUP2 MSTORE PUSH1 0x20 ADD SWAP1 DUP2 MSTORE PUSH1 0x20 ADD PUSH1 0x0 KECCAK256 SLOAD SWAP1 POP SWAP2 SWAP1 POP JUMP JUMPDEST PUSH1 0x0 PUSH1 0x5 PUSH1 0x0 DUP4 PUSH20 0xFFFFFFFFFFFFFFFFFFFFFFFFFFFFFFFFFFFFFFFF AND PUSH20 0xFFFFFFFFFFFFFFFFFFFFFFFFFFFFFFFFFFFFFFFF AND DUP2 MSTORE PUSH1 0x20 ADD SWAP1 DUP2 MSTORE PUSH1 0x20 ADD PUSH1 0x0 KECCAK256 SLOAD SWAP1 POP SWAP2 SWAP1 POP JUMP JUMPDEST PUSH1 0x0 PUSH1 0x1 SLOAD SWAP1 POP SWAP1 JUMP JUMPDEST DUP1 SELFBALANCE LT ISZERO PUSH2 0x9BD JUMPI PUSH1 0x40 MLOAD PUSH32 0x8C379A000000000000000000000000000000000000000000000000000000000 DUP2 MSTORE PUSH1 0x4 ADD PUSH2 0x9B4 SWAP1 PUSH2 0x137C JUMP JUMPDEST PUSH1 0x40 MLOAD DUP1 SWAP2 SUB SWAP1 REVERT JUMPDEST PUSH1 0x0 DUP3 PUSH20 0xFFFFFFFFFFFFFFFFFFFFFFFFFFFFFFFFFFFFFFFF AND DUP3 PUSH1 0x40 MLOAD PUSH2 0x9E3 SWAP1 PUSH2 0x13CD JUMP JUMPDEST PUSH1 0x0 PUSH1 0x40 MLOAD DUP1 DUP4 SUB DUP2 DUP6 DUP8 GAS CALL SWAP3 POP POP POP RETURNDATASIZE DUP1 PUSH1 0x0 DUP2 EQ PUSH2 0xA20 JUMPI PUSH1 0x40 MLOAD SWAP2 POP PUSH1 0x1F NOT PUSH1 0x3F RETURNDATASIZE ADD AND DUP3 ADD PUSH1 0x40 MSTORE RETURNDATASIZE DUP3 MSTORE RETURNDATASIZE PUSH1 0x0 PUSH1 0x20 DUP5 ADD RETURNDATACOPY PUSH2 0xA25 JUMP JUMPDEST PUSH1 0x60 SWAP2 POP JUMPDEST POP POP SWAP1 POP DUP1 PUSH2 0xA69 JUMPI PUSH1 0x40 MLOAD PUSH32 0x8C379A000000000000000000000000000000000000000000000000000000000 DUP2 MSTORE PUSH1 0x4 ADD PUSH2 0xA60 SWAP1 PUSH2 0x1454 JUMP JUMPDEST PUSH1 0x40 MLOAD DUP1 SWAP2 SUB SWAP1 REVERT JUMPDEST POP POP POP JUMP JUMPDEST PUSH2 0xAEF DUP4 PUSH4 0xA9059CBB PUSH1 0xE0 SHL DUP5 DUP5 PUSH1 0x40 MLOAD PUSH1 0x24 ADD PUSH2 0xA8D SWAP3 SWAP2 SWAP1 PUSH2 0xE51 JUMP JUMPDEST PUSH1 0x40 MLOAD PUSH1 0x20 DUP2 DUP4 SUB SUB DUP2 MSTORE SWAP1 PUSH1 0x40 MSTORE SWAP1 PUSH28 0xFFFFFFFFFFFFFFFFFFFFFFFFFFFFFFFFFFFFFFFFFFFFFFFFFFFFFFFF NOT AND PUSH1 0x20 DUP3 ADD DUP1 MLOAD PUSH28 0xFFFFFFFFFFFFFFFFFFFFFFFFFFFFFFFFFFFFFFFFFFFFFFFFFFFFFFFF DUP4 DUP2 DUP4 AND OR DUP4 MSTORE POP POP POP POP PUSH2 0xB62 JUMP JUMPDEST POP POP POP JUMP JUMPDEST PUSH1 0x0 DUP2 PUSH1 0x0 SLOAD PUSH1 0x2 PUSH1 0x0 DUP8 PUSH20 0xFFFFFFFFFFFFFFFFFFFFFFFFFFFFFFFFFFFFFFFF AND PUSH20 0xFFFFFFFFFFFFFFFFFFFFFFFFFFFFFFFFFFFFFFFF AND DUP2 MSTORE PUSH1 0x20 ADD SWAP1 DUP2 MSTORE PUSH1 0x20 ADD PUSH1 0x0 KECCAK256 SLOAD DUP6 PUSH2 0xB45 SWAP2 SWAP1 PUSH2 0x1474 JUMP JUMPDEST PUSH2 0xB4F SWAP2 SWAP1 PUSH2 0x14FD JUMP JUMPDEST PUSH2 0xB59 SWAP2 SWAP1 PUSH2 0x152E JUMP JUMPDEST SWAP1 POP SWAP4 SWAP3 POP POP POP JUMP JUMPDEST PUSH1 0x0 PUSH2 0xBC4 DUP3 PUSH1 0x40 MLOAD DUP1 PUSH1 0x40 ADD PUSH1 0x40 MSTORE DUP1 PUSH1 0x20 DUP2 MSTORE PUSH1 0x20 ADD PUSH32 0x5361666545524332303A206C6F772D6C6576656C2063616C6C206661696C6564 DUP2 MSTORE POP DUP6 PUSH20 0xFFFFFFFFFFFFFFFFFFFFFFFFFFFFFFFFFFFFFFFF AND PUSH2 0xC29 SWAP1 SWAP3 SWAP2 SWAP1 PUSH4 0xFFFFFFFF AND JUMP JUMPDEST SWAP1 POP PUSH1 0x0 DUP2 MLOAD GT ISZERO PUSH2 0xC24 JUMPI DUP1 DUP1 PUSH1 0x20 ADD SWAP1 MLOAD DUP2 ADD SWAP1 PUSH2 0xBE4 SWAP2 SWAP1 PUSH2 0x159A JUMP JUMPDEST PUSH2 0xC23 JUMPI PUSH1 0x40 MLOAD PUSH32 0x8C379A000000000000000000000000000000000000000000000000000000000 DUP2 MSTORE PUSH1 0x4 ADD PUSH2 0xC1A SWAP1 PUSH2 0x1639 JUMP JUMPDEST PUSH1 0x40 MLOAD DUP1 SWAP2 SUB SWAP1 REVERT JUMPDEST JUMPDEST POP POP POP JUMP JUMPDEST PUSH1 0x60 PUSH2 0xC38 DUP5 DUP5 PUSH1 0x0 DUP6 PUSH2 0xC41 JUMP JUMPDEST SWAP1 POP SWAP4 SWAP3 POP POP POP JUMP JUMPDEST PUSH1 0x60 DUP3 SELFBALANCE LT ISZERO PUSH2 0xC86 JUMPI PUSH1 0x40 MLOAD PUSH32 0x8C379A000000000000000000000000000000000000000000000000000000000 DUP2 MSTORE PUSH1 0x4 ADD PUSH2 0xC7D SWAP1 PUSH2 0x16CB JUMP JUMPDEST PUSH1 0x40 MLOAD DUP1 SWAP2 SUB SWAP1 REVERT JUMPDEST PUSH1 0x0 DUP1 DUP7 PUSH20 0xFFFFFFFFFFFFFFFFFFFFFFFFFFFFFFFFFFFFFFFF AND DUP6 DUP8 PUSH1 0x40 MLOAD PUSH2 0xCAF SWAP2 SWAP1 PUSH2 0x175A JUMP JUMPDEST PUSH1 0x0 PUSH1 0x40 MLOAD DUP1 DUP4 SUB DUP2 DUP6 DUP8 GAS CALL SWAP3 POP POP POP RETURNDATASIZE DUP1 PUSH1 0x0 DUP2 EQ PUSH2 0xCEC JUMPI PUSH1 0x40 MLOAD SWAP2 POP PUSH1 0x1F NOT PUSH1 0x3F RETURNDATASIZE ADD AND DUP3 ADD PUSH1 0x40 MSTORE RETURNDATASIZE DUP3 MSTORE RETURNDATASIZE PUSH1 0x0 PUSH1 0x20 DUP5 ADD RETURNDATACOPY PUSH2 0xCF1 JUMP JUMPDEST PUSH1 0x60 SWAP2 POP JUMPDEST POP SWAP2 POP SWAP2 POP PUSH2 0xD02 DUP8 DUP4 DUP4 DUP8 PUSH2 0xD0E JUMP JUMPDEST SWAP3 POP POP POP SWAP5 SWAP4 POP POP POP POP JUMP JUMPDEST PUSH1 0x60 DUP4 ISZERO PUSH2 0xD71 JUMPI PUSH1 0x0 DUP4 MLOAD EQ ISZERO PUSH2 0xD69 JUMPI PUSH2 0xD29 DUP6 PUSH2 0xD84 JUMP JUMPDEST PUSH2 0xD68 JUMPI PUSH1 0x40 MLOAD PUSH32 0x8C379A000000000000000000000000000000000000000000000000000000000 DUP2 MSTORE PUSH1 0x4 ADD PUSH2 0xD5F SWAP1 PUSH2 0x17BD JUMP JUMPDEST PUSH1 0x40 MLOAD DUP1 SWAP2 SUB SWAP1 REVERT JUMPDEST JUMPDEST DUP3 SWAP1 POP PUSH2 0xD7C JUMP JUMPDEST PUSH2 0xD7B DUP4 DUP4 PUSH2 0xDA7 JUMP JUMPDEST JUMPDEST SWAP5 SWAP4 POP POP POP POP JUMP JUMPDEST PUSH1 0x0 DUP1 DUP3 PUSH20 0xFFFFFFFFFFFFFFFFFFFFFFFFFFFFFFFFFFFFFFFF AND EXTCODESIZE GT SWAP1 POP SWAP2 SWAP1 POP JUMP JUMPDEST PUSH1 0x0 DUP3 MLOAD GT ISZERO PUSH2 0xDBA JUMPI DUP2 MLOAD DUP1 DUP4 PUSH1 0x20 ADD REVERT JUMPDEST DUP1 PUSH1 0x40 MLOAD PUSH32 0x8C379A000000000000000000000000000000000000000000000000000000000 DUP2 MSTORE PUSH1 0x4 ADD PUSH2 0xDEE SWAP2 SWAP1 PUSH2 0x1832 JUMP JUMPDEST PUSH1 0x40 MLOAD DUP1 SWAP2 SUB SWAP1 REVERT JUMPDEST PUSH1 0x0 PUSH20 0xFFFFFFFFFFFFFFFFFFFFFFFFFFFFFFFFFFFFFFFF DUP3 AND SWAP1 POP SWAP2 SWAP1 POP JUMP JUMPDEST PUSH1 0x0 PUSH2 0xE22 DUP3 PUSH2 0xDF7 JUMP JUMPDEST SWAP1 POP SWAP2 SWAP1 POP JUMP JUMPDEST PUSH2 0xE32 DUP2 PUSH2 0xE17 JUMP JUMPDEST DUP3 MSTORE POP POP JUMP JUMPDEST PUSH1 0x0 DUP2 SWAP1 POP SWAP2 SWAP1 POP JUMP JUMPDEST PUSH2 0xE4B DUP2 PUSH2 0xE38 JUMP JUMPDEST DUP3 MSTORE POP POP JUMP JUMPDEST PUSH1 0x0 PUSH1 0x40 DUP3 ADD SWAP1 POP PUSH2 0xE66 PUSH1 0x0 DUP4 ADD DUP6 PUSH2 0xE29 JUMP JUMPDEST PUSH2 0xE73 PUSH1 0x20 DUP4 ADD DUP5 PUSH2 0xE42 JUMP JUMPDEST SWAP4 SWAP3 POP POP POP JUMP JUMPDEST PUSH1 0x0 DUP1 REVERT JUMPDEST PUSH1 0x0 PUSH2 0xE8A DUP3 PUSH2 0xDF7 JUMP JUMPDEST SWAP1 POP SWAP2 SWAP1 POP JUMP JUMPDEST PUSH2 0xE9A DUP2 PUSH2 0xE7F JUMP JUMPDEST DUP2 EQ PUSH2 0xEA5 JUMPI PUSH1 0x0 DUP1 REVERT JUMPDEST POP JUMP JUMPDEST PUSH1 0x0 DUP2 CALLDATALOAD SWAP1 POP PUSH2 0xEB7 DUP2 PUSH2 0xE91 JUMP JUMPDEST SWAP3 SWAP2 POP POP JUMP JUMPDEST PUSH1 0x0 PUSH1 0x20 DUP3 DUP5 SUB SLT ISZERO PUSH2 0xED3 JUMPI PUSH2 0xED2 PUSH2 0xE7A JUMP JUMPDEST JUMPDEST PUSH1 0x0 PUSH2 0xEE1 DUP5 DUP3 DUP6 ADD PUSH2 0xEA8 JUMP JUMPDEST SWAP2 POP POP SWAP3 SWAP2 POP POP JUMP JUMPDEST PUSH1 0x0 PUSH1 0x20 DUP3 ADD SWAP1 POP PUSH2 0xEFF PUSH1 0x0 DUP4 ADD DUP5 PUSH2 0xE42 JUMP JUMPDEST SWAP3 SWAP2 POP POP JUMP JUMPDEST PUSH1 0x0 PUSH2 0xF10 DUP3 PUSH2 0xE17 JUMP JUMPDEST SWAP1 POP SWAP2 SWAP1 POP JUMP JUMPDEST PUSH2 0xF20 DUP2 PUSH2 0xF05 JUMP JUMPDEST DUP2 EQ PUSH2 0xF2B JUMPI PUSH1 0x0 DUP1 REVERT JUMPDEST POP JUMP JUMPDEST PUSH1 0x0 DUP2 CALLDATALOAD SWAP1 POP PUSH2 0xF3D DUP2 PUSH2 0xF17 JUMP JUMPDEST SWAP3 SWAP2 POP POP JUMP JUMPDEST PUSH2 0xF4C DUP2 PUSH2 0xE17 JUMP JUMPDEST DUP2 EQ PUSH2 0xF57 JUMPI PUSH1 0x0 DUP1 REVERT JUMPDEST POP JUMP JUMPDEST PUSH1 0x0 DUP2 CALLDATALOAD SWAP1 POP PUSH2 0xF69 DUP2 PUSH2 0xF43 JUMP JUMPDEST SWAP3 SWAP2 POP POP JUMP JUMPDEST PUSH1 0x0 DUP1 PUSH1 0x40 DUP4 DUP6 SUB SLT ISZERO PUSH2 0xF86 JUMPI PUSH2 0xF85 PUSH2 0xE7A JUMP JUMPDEST JUMPDEST PUSH1 0x0 PUSH2 0xF94 DUP6 DUP3 DUP7 ADD PUSH2 0xF2E JUMP JUMPDEST SWAP3 POP POP PUSH1 0x20 PUSH2 0xFA5 DUP6 DUP3 DUP7 ADD PUSH2 0xF5A JUMP JUMPDEST SWAP2 POP POP SWAP3 POP SWAP3 SWAP1 POP JUMP JUMPDEST PUSH2 0xFB8 DUP2 PUSH2 0xE38 JUMP JUMPDEST DUP2 EQ PUSH2 0xFC3 JUMPI PUSH1 0x0 DUP1 REVERT JUMPDEST POP JUMP JUMPDEST PUSH1 0x0 DUP2 CALLDATALOAD SWAP1 POP PUSH2 0xFD5 DUP2 PUSH2 0xFAF JUMP JUMPDEST SWAP3 SWAP2 POP POP JUMP JUMPDEST PUSH1 0x0 PUSH1 0x20 DUP3 DUP5 SUB SLT ISZERO PUSH2 0xFF1 JUMPI PUSH2 0xFF0 PUSH2 0xE7A JUMP JUMPDEST JUMPDEST PUSH1 0x0 PUSH2 0xFFF DUP5 DUP3 DUP6 ADD PUSH2 0xFC6 JUMP JUMPDEST SWAP2 POP POP SWAP3 SWAP2 POP POP JUMP JUMPDEST PUSH1 0x0 PUSH1 0x20 DUP3 ADD SWAP1 POP PUSH2 0x101D PUSH1 0x0 DUP4 ADD DUP5 PUSH2 0xE29 JUMP JUMPDEST SWAP3 SWAP2 POP POP JUMP JUMPDEST PUSH1 0x0 PUSH1 0x20 DUP3 DUP5 SUB SLT ISZERO PUSH2 0x1039 JUMPI PUSH2 0x1038 PUSH2 0xE7A JUMP JUMPDEST JUMPDEST PUSH1 0x0 PUSH2 0x1047 DUP5 DUP3 DUP6 ADD PUSH2 0xF5A JUMP JUMPDEST SWAP2 POP POP SWAP3 SWAP2 POP POP JUMP JUMPDEST PUSH1 0x0 PUSH1 0x20 DUP3 DUP5 SUB SLT ISZERO PUSH2 0x1066 JUMPI PUSH2 0x1065 PUSH2 0xE7A JUMP JUMPDEST JUMPDEST PUSH1 0x0 PUSH2 0x1074 DUP5 DUP3 DUP6 ADD PUSH2 0xF2E JUMP JUMPDEST SWAP2 POP POP SWAP3 SWAP2 POP POP JUMP JUMPDEST PUSH1 0x0 DUP3 DUP3 MSTORE PUSH1 0x20 DUP3 ADD SWAP1 POP SWAP3 SWAP2 POP POP JUMP JUMPDEST PUSH32 0x5061796D656E7453706C69747465723A206163636F756E7420686173206E6F20 PUSH1 0x0 DUP3 ADD MSTORE PUSH32 0x7368617265730000000000000000000000000000000000000000000000000000 PUSH1 0x20 DUP3 ADD MSTORE POP JUMP JUMPDEST PUSH1 0x0 PUSH2 0x10EA PUSH1 0x26 DUP4 PUSH2 0x107D JUMP JUMPDEST SWAP2 POP PUSH2 0x10F5 DUP3 PUSH2 0x108E JUMP JUMPDEST PUSH1 0x40 DUP3 ADD SWAP1 POP SWAP2 SWAP1 POP JUMP JUMPDEST PUSH1 0x0 PUSH1 0x20 DUP3 ADD SWAP1 POP DUP2 DUP2 SUB PUSH1 0x0 DUP4 ADD MSTORE PUSH2 0x1119 DUP2 PUSH2 0x10DD JUMP JUMPDEST SWAP1 POP SWAP2 SWAP1 POP JUMP JUMPDEST PUSH32 0x5061796D656E7453706C69747465723A206163636F756E74206973206E6F7420 PUSH1 0x0 DUP3 ADD MSTORE PUSH32 0x647565207061796D656E74000000000000000000000000000000000000000000 PUSH1 0x20 DUP3 ADD MSTORE POP JUMP JUMPDEST PUSH1 0x0 PUSH2 0x117C PUSH1 0x2B DUP4 PUSH2 0x107D JUMP JUMPDEST SWAP2 POP PUSH2 0x1187 DUP3 PUSH2 0x1120 JUMP JUMPDEST PUSH1 0x40 DUP3 ADD SWAP1 POP SWAP2 SWAP1 POP JUMP JUMPDEST PUSH1 0x0 PUSH1 0x20 DUP3 ADD SWAP1 POP DUP2 DUP2 SUB PUSH1 0x0 DUP4 ADD MSTORE PUSH2 0x11AB DUP2 PUSH2 0x116F JUMP JUMPDEST SWAP1 POP SWAP2 SWAP1 POP JUMP JUMPDEST PUSH32 0x4E487B7100000000000000000000000000000000000000000000000000000000 PUSH1 0x0 MSTORE PUSH1 0x11 PUSH1 0x4 MSTORE PUSH1 0x24 PUSH1 0x0 REVERT JUMPDEST PUSH1 0x0 PUSH2 0x11EC DUP3 PUSH2 0xE38 JUMP JUMPDEST SWAP2 POP PUSH2 0x11F7 DUP4 PUSH2 0xE38 JUMP JUMPDEST SWAP3 POP DUP3 PUSH32 0xFFFFFFFFFFFFFFFFFFFFFFFFFFFFFFFFFFFFFFFFFFFFFFFFFFFFFFFFFFFFFFFF SUB DUP3 GT ISZERO PUSH2 0x122C JUMPI PUSH2 0x122B PUSH2 0x11B2 JUMP JUMPDEST JUMPDEST DUP3 DUP3 ADD SWAP1 POP SWAP3 SWAP2 POP POP JUMP JUMPDEST PUSH1 0x0 DUP2 SWAP1 POP SWAP2 SWAP1 POP JUMP JUMPDEST PUSH1 0x0 PUSH2 0x125C PUSH2 0x1257 PUSH2 0x1252 DUP5 PUSH2 0xDF7 JUMP JUMPDEST PUSH2 0x1237 JUMP JUMPDEST PUSH2 0xDF7 JUMP JUMPDEST SWAP1 POP SWAP2 SWAP1 POP JUMP JUMPDEST PUSH1 0x0 PUSH2 0x126E DUP3 PUSH2 0x1241 JUMP JUMPDEST SWAP1 POP SWAP2 SWAP1 POP JUMP JUMPDEST PUSH1 0x0 PUSH2 0x1280 DUP3 PUSH2 0x1263 JUMP JUMPDEST SWAP1 POP SWAP2 SWAP1 POP JUMP JUMPDEST PUSH2 0x1290 DUP2 PUSH2 0x1275 JUMP JUMPDEST DUP3 MSTORE POP POP JUMP JUMPDEST PUSH1 0x0 PUSH1 0x40 DUP3 ADD SWAP1 POP PUSH2 0x12AB PUSH1 0x0 DUP4 ADD DUP6 PUSH2 0x1287 JUMP JUMPDEST PUSH2 0x12B8 PUSH1 0x20 DUP4 ADD DUP5 PUSH2 0xE42 JUMP JUMPDEST SWAP4 SWAP3 POP POP POP JUMP JUMPDEST PUSH32 0x4E487B7100000000000000000000000000000000000000000000000000000000 PUSH1 0x0 MSTORE PUSH1 0x32 PUSH1 0x4 MSTORE PUSH1 0x24 PUSH1 0x0 REVERT JUMPDEST PUSH1 0x0 DUP2 MLOAD SWAP1 POP PUSH2 0x12FD DUP2 PUSH2 0xFAF JUMP JUMPDEST SWAP3 SWAP2 POP POP JUMP JUMPDEST PUSH1 0x0 PUSH1 0x20 DUP3 DUP5 SUB SLT ISZERO PUSH2 0x1319 JUMPI PUSH2 0x1318 PUSH2 0xE7A JUMP JUMPDEST JUMPDEST PUSH1 0x0 PUSH2 0x1327 DUP5 DUP3 DUP6 ADD PUSH2 0x12EE JUMP JUMPDEST SWAP2 POP POP SWAP3 SWAP2 POP POP JUMP JUMPDEST PUSH32 0x416464726573733A20696E73756666696369656E742062616C616E6365000000 PUSH1 0x0 DUP3 ADD MSTORE POP JUMP JUMPDEST PUSH1 0x0 PUSH2 0x1366 PUSH1 0x1D DUP4 PUSH2 0x107D JUMP JUMPDEST SWAP2 POP PUSH2 0x1371 DUP3 PUSH2 0x1330 JUMP JUMPDEST PUSH1 0x20 DUP3 ADD SWAP1 POP SWAP2 SWAP1 POP JUMP JUMPDEST PUSH1 0x0 PUSH1 0x20 DUP3 ADD SWAP1 POP DUP2 DUP2 SUB PUSH1 0x0 DUP4 ADD MSTORE PUSH2 0x1395 DUP2 PUSH2 0x1359 JUMP JUMPDEST SWAP1 POP SWAP2 SWAP1 POP JUMP JUMPDEST PUSH1 0x0 DUP2 SWAP1 POP SWAP3 SWAP2 POP POP JUMP JUMPDEST POP JUMP JUMPDEST PUSH1 0x0 PUSH2 0x13B7 PUSH1 0x0 DUP4 PUSH2 0x139C JUMP JUMPDEST SWAP2 POP PUSH2 0x13C2 DUP3 PUSH2 0x13A7 JUMP JUMPDEST PUSH1 0x0 DUP3 ADD SWAP1 POP SWAP2 SWAP1 POP JUMP JUMPDEST PUSH1 0x0 PUSH2 0x13D8 DUP3 PUSH2 0x13AA JUMP JUMPDEST SWAP2 POP DUP2 SWAP1 POP SWAP2 SWAP1 POP JUMP JUMPDEST PUSH32 0x416464726573733A20756E61626C6520746F2073656E642076616C75652C2072 PUSH1 0x0 DUP3 ADD MSTORE PUSH32 0x6563697069656E74206D61792068617665207265766572746564000000000000 PUSH1 0x20 DUP3 ADD MSTORE POP JUMP JUMPDEST PUSH1 0x0 PUSH2 0x143E PUSH1 0x3A DUP4 PUSH2 0x107D JUMP JUMPDEST SWAP2 POP PUSH2 0x1449 DUP3 PUSH2 0x13E2 JUMP JUMPDEST PUSH1 0x40 DUP3 ADD SWAP1 POP SWAP2 SWAP1 POP JUMP JUMPDEST PUSH1 0x0 PUSH1 0x20 DUP3 ADD SWAP1 POP DUP2 DUP2 SUB PUSH1 0x0 DUP4 ADD MSTORE PUSH2 0x146D DUP2 PUSH2 0x1431 JUMP JUMPDEST SWAP1 POP SWAP2 SWAP1 POP JUMP JUMPDEST PUSH1 0x0 PUSH2 0x147F DUP3 PUSH2 0xE38 JUMP JUMPDEST SWAP2 POP PUSH2 0x148A DUP4 PUSH2 0xE38 JUMP JUMPDEST SWAP3 POP DUP2 PUSH32 0xFFFFFFFFFFFFFFFFFFFFFFFFFFFFFFFFFFFFFFFFFFFFFFFFFFFFFFFFFFFFFFFF DIV DUP4 GT DUP3 ISZERO ISZERO AND ISZERO PUSH2 0x14C3 JUMPI PUSH2 0x14C2 PUSH2 0x11B2 JUMP JUMPDEST JUMPDEST DUP3 DUP3 MUL SWAP1 POP SWAP3 SWAP2 POP POP JUMP JUMPDEST PUSH32 0x4E487B7100000000000000000000000000000000000000000000000000000000 PUSH1 0x0 MSTORE PUSH1 0x12 PUSH1 0x4 MSTORE PUSH1 0x24 PUSH1 0x0 REVERT JUMPDEST PUSH1 0x0 PUSH2 0x1508 DUP3 PUSH2 0xE38 JUMP JUMPDEST SWAP2 POP PUSH2 0x1513 DUP4 PUSH2 0xE38 JUMP JUMPDEST SWAP3 POP DUP3 PUSH2 0x1523 JUMPI PUSH2 0x1522 PUSH2 0x14CE JUMP JUMPDEST JUMPDEST DUP3 DUP3 DIV SWAP1 POP SWAP3 SWAP2 POP POP JUMP JUMPDEST PUSH1 0x0 PUSH2 0x1539 DUP3 PUSH2 0xE38 JUMP JUMPDEST SWAP2 POP PUSH2 0x1544 DUP4 PUSH2 0xE38 JUMP JUMPDEST SWAP3 POP DUP3 DUP3 LT ISZERO PUSH2 0x1557 JUMPI PUSH2 0x1556 PUSH2 0x11B2 JUMP JUMPDEST JUMPDEST DUP3 DUP3 SUB SWAP1 POP SWAP3 SWAP2 POP POP JUMP JUMPDEST PUSH1 0x0 DUP2 ISZERO ISZERO SWAP1 POP SWAP2 SWAP1 POP JUMP JUMPDEST PUSH2 0x1577 DUP2 PUSH2 0x1562 JUMP JUMPDEST DUP2 EQ PUSH2 0x1582 JUMPI PUSH1 0x0 DUP1 REVERT JUMPDEST POP JUMP JUMPDEST PUSH1 0x0 DUP2 MLOAD SWAP1 POP PUSH2 0x1594 DUP2 PUSH2 0x156E JUMP JUMPDEST SWAP3 SWAP2 POP POP JUMP JUMPDEST PUSH1 0x0 PUSH1 0x20 DUP3 DUP5 SUB SLT ISZERO PUSH2 0x15B0 JUMPI PUSH2 0x15AF PUSH2 0xE7A JUMP JUMPDEST JUMPDEST PUSH1 0x0 PUSH2 0x15BE DUP5 DUP3 DUP6 ADD PUSH2 0x1585 JUMP JUMPDEST SWAP2 POP POP SWAP3 SWAP2 POP POP JUMP JUMPDEST PUSH32 0x5361666545524332303A204552433230206F7065726174696F6E20646964206E PUSH1 0x0 DUP3 ADD MSTORE PUSH32 0x6F74207375636365656400000000000000000000000000000000000000000000 PUSH1 0x20 DUP3 ADD MSTORE POP JUMP JUMPDEST PUSH1 0x0 PUSH2 0x1623 PUSH1 0x2A DUP4 PUSH2 0x107D JUMP JUMPDEST SWAP2 POP PUSH2 0x162E DUP3 PUSH2 0x15C7 JUMP JUMPDEST PUSH1 0x40 DUP3 ADD SWAP1 POP SWAP2 SWAP1 POP JUMP JUMPDEST PUSH1 0x0 PUSH1 0x20 DUP3 ADD SWAP1 POP DUP2 DUP2 SUB PUSH1 0x0 DUP4 ADD MSTORE PUSH2 0x1652 DUP2 PUSH2 0x1616 JUMP JUMPDEST SWAP1 POP SWAP2 SWAP1 POP JUMP JUMPDEST PUSH32 0x416464726573733A20696E73756666696369656E742062616C616E636520666F PUSH1 0x0 DUP3 ADD MSTORE PUSH32 0x722063616C6C0000000000000000000000000000000000000000000000000000 PUSH1 0x20 DUP3 ADD MSTORE POP JUMP JUMPDEST PUSH1 0x0 PUSH2 0x16B5 PUSH1 0x26 DUP4 PUSH2 0x107D JUMP JUMPDEST SWAP2 POP PUSH2 0x16C0 DUP3 PUSH2 0x1659 JUMP JUMPDEST PUSH1 0x40 DUP3 ADD SWAP1 POP SWAP2 SWAP1 POP JUMP JUMPDEST PUSH1 0x0 PUSH1 0x20 DUP3 ADD SWAP1 POP DUP2 DUP2 SUB PUSH1 0x0 DUP4 ADD MSTORE PUSH2 0x16E4 DUP2 PUSH2 0x16A8 JUMP JUMPDEST SWAP1 POP SWAP2 SWAP1 POP JUMP JUMPDEST PUSH1 0x0 DUP2 MLOAD SWAP1 POP SWAP2 SWAP1 POP JUMP JUMPDEST PUSH1 0x0 JUMPDEST DUP4 DUP2 LT ISZERO PUSH2 0x1714 JUMPI DUP1 DUP3 ADD MLOAD DUP2 DUP5 ADD MSTORE PUSH1 0x20 DUP2 ADD SWAP1 POP PUSH2 0x16F9 JUMP JUMPDEST DUP4 DUP2 GT ISZERO PUSH2 0x1723 JUMPI PUSH1 0x0 DUP5 DUP5 ADD MSTORE JUMPDEST POP POP POP POP JUMP JUMPDEST PUSH1 0x0 PUSH2 0x1734 DUP3 PUSH2 0x16EB JUMP JUMPDEST PUSH2 0x173E DUP2 DUP6 PUSH2 0x139C JUMP JUMPDEST SWAP4 POP PUSH2 0x174E DUP2 DUP6 PUSH1 0x20 DUP7 ADD PUSH2 0x16F6 JUMP JUMPDEST DUP1 DUP5 ADD SWAP2 POP POP SWAP3 SWAP2 POP POP JUMP JUMPDEST PUSH1 0x0 PUSH2 0x1766 DUP3 DUP5 PUSH2 0x1729 JUMP JUMPDEST SWAP2 POP DUP2 SWAP1 POP SWAP3 SWAP2 POP POP JUMP JUMPDEST PUSH32 0x416464726573733A2063616C6C20746F206E6F6E2D636F6E7472616374000000 PUSH1 0x0 DUP3 ADD MSTORE POP JUMP JUMPDEST PUSH1 0x0 PUSH2 0x17A7 PUSH1 0x1D DUP4 PUSH2 0x107D JUMP JUMPDEST SWAP2 POP PUSH2 0x17B2 DUP3 PUSH2 0x1771 JUMP JUMPDEST PUSH1 0x20 DUP3 ADD SWAP1 POP SWAP2 SWAP1 POP JUMP JUMPDEST PUSH1 0x0 PUSH1 0x20 DUP3 ADD SWAP1 POP DUP2 DUP2 SUB PUSH1 0x0 DUP4 ADD MSTORE PUSH2 0x17D6 DUP2 PUSH2 0x179A JUMP JUMPDEST SWAP1 POP SWAP2 SWAP1 POP JUMP JUMPDEST PUSH1 0x0 DUP2 MLOAD SWAP1 POP SWAP2 SWAP1 POP JUMP JUMPDEST PUSH1 0x0 PUSH1 0x1F NOT PUSH1 0x1F DUP4 ADD AND SWAP1 POP SWAP2 SWAP1 POP JUMP JUMPDEST PUSH1 0x0 PUSH2 0x1804 DUP3 PUSH2 0x17DD JUMP JUMPDEST PUSH2 0x180E DUP2 DUP6 PUSH2 0x107D JUMP JUMPDEST SWAP4 POP PUSH2 0x181E DUP2 DUP6 PUSH1 0x20 DUP7 ADD PUSH2 0x16F6 JUMP JUMPDEST PUSH2 0x1827 DUP2 PUSH2 0x17E8 JUMP JUMPDEST DUP5 ADD SWAP2 POP POP SWAP3 SWAP2 POP POP JUMP JUMPDEST PUSH1 0x0 PUSH1 0x20 DUP3 ADD SWAP1 POP DUP2 DUP2 SUB PUSH1 0x0 DUP4 ADD MSTORE PUSH2 0x184C DUP2 DUP5 PUSH2 0x17F9 JUMP JUMPDEST SWAP1 POP SWAP3 SWAP2 POP POP JUMP INVALID LOG2 PUSH5 0x6970667358 0x22 SLT KECCAK256 MLOAD MOD POP 0xBD 0xC1 0x24 0xB8 MUL PC LOG1 LOG4 0xA6 DUP5 CALL 0xC5 PUSH28 0x9D411C4162E903F8296453AB478EB2CD64736F6C634300080C003300 "},"methodIdentifiers":{"payee(uint256)":"8b83209b","releasable(address)":"a3f8eace","releasable(address,address)":"c45ac050","release(address)":"19165587","release(address,address)":"48b75044","released(address)":"9852595c","released(address,address)":"406072a9","shares(address)":"ce7c2ac2","totalReleased()":"e33b7de3","totalReleased(address)":"d79779b2","totalShares()":"3a98ef39"}}}}}