{
  "_format": "hh-sol-artifact-1",
  "contractName": "LionStaking",
  "sourceName": "contracts/LionStaking.sol",
  "abi": [
    {
      "inputs": [
        {
          "internalType": "contract LionToken",
          "name": "_token",
          "type": "address"
        },
        {
          "internalType": "contract LionNFT",
          "name": "_nft",
          "type": "address"
        }
      ],
      "stateMutability": "nonpayable",
      "type": "constructor"
    },
    {
      "anonymous": false,
      "inputs": [
        {
          "indexed": true,
          "internalType": "address",
          "name": "owner",
          "type": "address"
        },
        {
          "indexed": false,
          "internalType": "uint256",
          "name": "amount",
          "type": "uint256"
        }
      ],
      "name": "Claimed",
      "type": "event"
    },
    {
      "anonymous": false,
      "inputs": [
        {
          "indexed": true,
          "internalType": "address",
          "name": "owner",
          "type": "address"
        },
        {
          "indexed": false,
          "internalType": "uint256",
          "name": "tokenId",
          "type": "uint256"
        },
        {
          "indexed": false,
          "internalType": "uint256",
          "name": "value",
          "type": "uint256"
        }
      ],
      "name": "Staked",
      "type": "event"
    },
    {
      "anonymous": false,
      "inputs": [
        {
          "indexed": true,
          "internalType": "address",
          "name": "owner",
          "type": "address"
        },
        {
          "indexed": false,
          "internalType": "uint256",
          "name": "tokenId",
          "type": "uint256"
        },
        {
          "indexed": false,
          "internalType": "uint256",
          "name": "value",
          "type": "uint256"
        }
      ],
      "name": "UnStaked",
      "type": "event"
    },
    {
      "inputs": [
        {
          "internalType": "uint256[]",
          "name": "tokenIds",
          "type": "uint256[]"
        }
      ],
      "name": "Stake",
      "outputs": [],
      "stateMutability": "nonpayable",
      "type": "function"
    },
    {
      "inputs": [
        {
          "internalType": "uint256[]",
          "name": "tokenIds",
          "type": "uint256[]"
        }
      ],
      "name": "claim",
      "outputs": [],
      "stateMutability": "nonpayable",
      "type": "function"
    },
    {
      "inputs": [
        {
          "internalType": "address",
          "name": "owner",
          "type": "address"
        },
        {
          "internalType": "uint256[]",
          "name": "tokenIds",
          "type": "uint256[]"
        }
      ],
      "name": "getRewardsAmount",
      "outputs": [
        {
          "internalType": "uint256",
          "name": "",
          "type": "uint256"
        }
      ],
      "stateMutability": "view",
      "type": "function"
    },
    {
      "inputs": [
        {
          "internalType": "address",
          "name": "owner",
          "type": "address"
        }
      ],
      "name": "tokenStakedByOwner",
      "outputs": [
        {
          "internalType": "uint256[]",
          "name": "",
          "type": "uint256[]"
        }
      ],
      "stateMutability": "view",
      "type": "function"
    },
    {
      "inputs": [
        {
          "internalType": "uint256[]",
          "name": "tokenIds",
          "type": "uint256[]"
        }
      ],
      "name": "unstack",
      "outputs": [],
      "stateMutability": "nonpayable",
      "type": "function"
    },
    {
      "stateMutability": "payable",
      "type": "receive"
    }
  ],
  "bytecode": "0x608060405268056bc75e2d631000006002553480156200001e57600080fd5b50604051620018f7380380620018f78339818101604052810190620000449190620001a5565b81600360006101000a81548173ffffffffffffffffffffffffffffffffffffffff021916908373ffffffffffffffffffffffffffffffffffffffff16021790555080600460006101000a81548173ffffffffffffffffffffffffffffffffffffffff021916908373ffffffffffffffffffffffffffffffffffffffff1602179055505050620001ec565b600080fd5b600073ffffffffffffffffffffffffffffffffffffffff82169050919050565b60006200010082620000d3565b9050919050565b60006200011482620000f3565b9050919050565b620001268162000107565b81146200013257600080fd5b50565b60008151905062000146816200011b565b92915050565b60006200015982620000d3565b9050919050565b60006200016d826200014c565b9050919050565b6200017f8162000160565b81146200018b57600080fd5b50565b6000815190506200019f8162000174565b92915050565b60008060408385031215620001bf57620001be620000ce565b5b6000620001cf8582860162000135565b9250506020620001e2858286016200018e565b9150509250929050565b6116fb80620001fc6000396000f3fe60806040526004361061004e5760003560e01c806347d5029f1461005a5780636ba4c1381461008357806370b68cf6146100ac5780639539867f146100d5578063ab5d2ce61461011257610055565b3661005557005b600080fd5b34801561006657600080fd5b50610081600480360381019061007c9190610fb1565b61014f565b005b34801561008f57600080fd5b506100aa60048036038101906100a59190610fb1565b610160565b005b3480156100b857600080fd5b506100d360048036038101906100ce9190610fb1565b610171565b005b3480156100e157600080fd5b506100fc60048036038101906100f7919061105c565b610519565b60405161010991906110d5565b60405180910390f35b34801561011e57600080fd5b50610139600480360381019061013491906110f0565b6106ec565b60405161014691906111db565b60405180910390f35b61015c338383600161093b565b5050565b61016d338383600061093b565b5050565b600082829050600080828254610187919061122c565b9250508190555060005b83839050811015610513578383828181106101af576101ae611282565b5b9050602002013591503373ffffffffffffffffffffffffffffffffffffffff16600460009054906101000a900473ffffffffffffffffffffffffffffffffffffffff1673ffffffffffffffffffffffffffffffffffffffff16636352211e846040518263ffffffff1660e01b815260040161022a91906110d5565b602060405180830381865afa158015610247573d6000803e3d6000fd5b505050506040513d601f19601f8201168201806040525081019061026b91906112c6565b73ffffffffffffffffffffffffffffffffffffffff16146102c1576040517f08c379a00000000000000000000000000000000000000000000000000000000081526004016102b890611350565b60405180910390fd5b60006001600084815260200190815260200160002060000160039054906101000a900465ffffffffffff1665ffffffffffff1614610334576040517f08c379a000000000000000000000000000000000000000000000000000000000815260040161032b906113bc565b60405180910390fd5b600460009054906101000a900473ffffffffffffffffffffffffffffffffffffffff1673ffffffffffffffffffffffffffffffffffffffff166323b872dd3330856040518463ffffffff1660e01b8152600401610393939291906113eb565b600060405180830381600087803b1580156103ad57600080fd5b505af11580156103c1573d6000803e3d6000fd5b505050503373ffffffffffffffffffffffffffffffffffffffff167f1449c6dd7851abc30abf37f57715f492010519147cc2652fbc38202c18a6ee90834260405161040d929190611422565b60405180910390a260405180606001604052808362ffffff1681526020014265ffffffffffff1681526020013373ffffffffffffffffffffffffffffffffffffffff168152506001600084815260200190815260200160002060008201518160000160006101000a81548162ffffff021916908362ffffff16021790555060208201518160000160036101000a81548165ffffffffffff021916908365ffffffffffff16021790555060408201518160000160096101000a81548173ffffffffffffffffffffffffffffffffffffffff021916908373ffffffffffffffffffffffffffffffffffffffff160217905550905050808061050b9061144b565b915050610191565b50505050565b60008060008060005b868690508110156106de578686828181106105405761053f611282565b5b9050602002013593506000600160008681526020019081526020016000206040518060600160405290816000820160009054906101000a900462ffffff1662ffffff1662ffffff1681526020016000820160039054906101000a900465ffffffffffff1665ffffffffffff1665ffffffffffff1681526020016000820160099054906101000a900473ffffffffffffffffffffffffffffffffffffffff1673ffffffffffffffffffffffffffffffffffffffff1673ffffffffffffffffffffffffffffffffffffffff168152505090508873ffffffffffffffffffffffffffffffffffffffff16816040015173ffffffffffffffffffffffffffffffffffffffff1614610682576040517f08c379a000000000000000000000000000000000000000000000000000000000815260040161067990611506565b60405180910390fd5b6000816020015165ffffffffffff169050610e1060025482426106a59190611526565b6106af919061155a565b6106b991906115e3565b945084846106c7919061122c565b9350505080806106d69061144b565b915050610522565b508093505050509392505050565b60606000600460009054906101000a900473ffffffffffffffffffffffffffffffffffffffff1673ffffffffffffffffffffffffffffffffffffffff166318160ddd6040518163ffffffff1660e01b8152600401602060405180830381865afa15801561075d573d6000803e3d6000fd5b505050506040513d601f19601f820116820180604052508101906107819190611640565b905060008167ffffffffffffffff81111561079f5761079e61166d565b5b6040519080825280602002602001820160405280156107cd5781602001602082028036833780820191505090505b5090506000805b83811015610888578573ffffffffffffffffffffffffffffffffffffffff166001600083815260200190815260200160002060000160099054906101000a900473ffffffffffffffffffffffffffffffffffffffff1673ffffffffffffffffffffffffffffffffffffffff161415610875578083838151811061085a57610859611282565b5b60200260200101818152505081806108719061144b565b9250505b80806108809061144b565b9150506107d4565b5060008167ffffffffffffffff8111156108a5576108a461166d565b5b6040519080825280602002602001820160405280156108d35781602001602082028036833780820191505090505b50905060005b8281101561092e578381815181106108f4576108f3611282565b5b602002602001015182828151811061090f5761090e611282565b5b60200260200101818152505080806109269061144b565b9150506108d9565b5080945050505050919050565b600080600080600090505b86869050811015610bed5786868281811061096457610963611282565b5b9050602002013593506000600160008681526020019081526020016000206040518060600160405290816000820160009054906101000a900462ffffff1662ffffff1662ffffff1681526020016000820160039054906101000a900465ffffffffffff1665ffffffffffff1665ffffffffffff1681526020016000820160099054906101000a900473ffffffffffffffffffffffffffffffffffffffff1673ffffffffffffffffffffffffffffffffffffffff1673ffffffffffffffffffffffffffffffffffffffff168152505090508873ffffffffffffffffffffffffffffffffffffffff16816040015173ffffffffffffffffffffffffffffffffffffffff1614610aa6576040517f08c379a0000000000000000000000000000000000000000000000000000000008152600401610a9d90611506565b60405180910390fd5b6000816020015165ffffffffffff169050610e106002548242610ac99190611526565b610ad3919061155a565b610add91906115e3565b94508484610aeb919061122c565b935060405180606001604052808762ffffff1681526020014265ffffffffffff1681526020018b73ffffffffffffffffffffffffffffffffffffffff168152506001600088815260200190815260200160002060008201518160000160006101000a81548162ffffff021916908362ffffff16021790555060208201518160000160036101000a81548165ffffffffffff021916908365ffffffffffff16021790555060408201518160000160096101000a81548173ffffffffffffffffffffffffffffffffffffffff021916908373ffffffffffffffffffffffffffffffffffffffff16021790555090505050508080610be59061144b565b915050610946565b506000811115610c8757600360009054906101000a900473ffffffffffffffffffffffffffffffffffffffff1673ffffffffffffffffffffffffffffffffffffffff166340c10f1988836040518363ffffffff1660e01b8152600401610c5492919061169c565b600060405180830381600087803b158015610c6e57600080fd5b505af1158015610c82573d6000803e3d6000fd5b505050505b8315610c9957610c98878787610cf0565b5b8673ffffffffffffffffffffffffffffffffffffffff167fd8138f8a3f377c5259ca548e70e4c2de94f129f5a11036a15b69513cba2b426a82604051610cdf91906110d5565b60405180910390a250505050505050565b600082829050600080828254610d069190611526565b9250508190555060005b83839050811015610f3b57838382818110610d2e57610d2d611282565b5b9050602002013591503373ffffffffffffffffffffffffffffffffffffffff166001600084815260200190815260200160002060000160099054906101000a900473ffffffffffffffffffffffffffffffffffffffff1673ffffffffffffffffffffffffffffffffffffffff1614610ddb576040517f08c379a0000000000000000000000000000000000000000000000000000000008152600401610dd290611350565b60405180910390fd5b8473ffffffffffffffffffffffffffffffffffffffff167ff26c0304cc83daf500e1dc22ab2e3cf954b3d506d62e34d70cc054255079e3978342604051610e23929190611422565b60405180910390a260016000838152602001908152602001600020600080820160006101000a81549062ffffff02191690556000820160036101000a81549065ffffffffffff02191690556000820160096101000a81549073ffffffffffffffffffffffffffffffffffffffff02191690555050600460009054906101000a900473ffffffffffffffffffffffffffffffffffffffff1673ffffffffffffffffffffffffffffffffffffffff166323b872dd3087856040518463ffffffff1660e01b8152600401610ef6939291906113eb565b600060405180830381600087803b158015610f1057600080fd5b505af1158015610f24573d6000803e3d6000fd5b505050508080610f339061144b565b915050610d10565b5050505050565b600080fd5b600080fd5b600080fd5b600080fd5b600080fd5b60008083601f840112610f7157610f70610f4c565b5b8235905067ffffffffffffffff811115610f8e57610f8d610f51565b5b602083019150836020820283011115610faa57610fa9610f56565b5b9250929050565b60008060208385031215610fc857610fc7610f42565b5b600083013567ffffffffffffffff811115610fe657610fe5610f47565b5b610ff285828601610f5b565b92509250509250929050565b600073ffffffffffffffffffffffffffffffffffffffff82169050919050565b600061102982610ffe565b9050919050565b6110398161101e565b811461104457600080fd5b50565b60008135905061105681611030565b92915050565b60008060006040848603121561107557611074610f42565b5b600061108386828701611047565b935050602084013567ffffffffffffffff8111156110a4576110a3610f47565b5b6110b086828701610f5b565b92509250509250925092565b6000819050919050565b6110cf816110bc565b82525050565b60006020820190506110ea60008301846110c6565b92915050565b60006020828403121561110657611105610f42565b5b600061111484828501611047565b91505092915050565b600081519050919050565b600082825260208201905092915050565b6000819050602082019050919050565b611152816110bc565b82525050565b60006111648383611149565b60208301905092915050565b6000602082019050919050565b60006111888261111d565b6111928185611128565b935061119d83611139565b8060005b838110156111ce5781516111b58882611158565b97506111c083611170565b9250506001810190506111a1565b5085935050505092915050565b600060208201905081810360008301526111f5818461117d565b905092915050565b7f4e487b7100000000000000000000000000000000000000000000000000000000600052601160045260246000fd5b6000611237826110bc565b9150611242836110bc565b9250827fffffffffffffffffffffffffffffffffffffffffffffffffffffffffffffffff03821115611277576112766111fd565b5b828201905092915050565b7f4e487b7100000000000000000000000000000000000000000000000000000000600052603260045260246000fd5b6000815190506112c081611030565b92915050565b6000602082840312156112dc576112db610f42565b5b60006112ea848285016112b1565b91505092915050565b600082825260208201905092915050565b7f4e6f7420746865206f776e657200000000000000000000000000000000000000600082015250565b600061133a600d836112f3565b915061134582611304565b602082019050919050565b600060208201905081810360008301526113698161132d565b9050919050565b7f416c7265616479205374616b6564000000000000000000000000000000000000600082015250565b60006113a6600e836112f3565b91506113b182611370565b602082019050919050565b600060208201905081810360008301526113d581611399565b9050919050565b6113e58161101e565b82525050565b600060608201905061140060008301866113dc565b61140d60208301856113dc565b61141a60408301846110c6565b949350505050565b600060408201905061143760008301856110c6565b61144460208301846110c6565b9392505050565b6000611456826110bc565b91507fffffffffffffffffffffffffffffffffffffffffffffffffffffffffffffffff821415611489576114886111fd565b5b600182019050919050565b7f4e6f7420746865206f776e65722c20796f752063616e6e6f7420636c61696d2060008201527f7265776172647300000000000000000000000000000000000000000000000000602082015250565b60006114f06027836112f3565b91506114fb82611494565b604082019050919050565b6000602082019050818103600083015261151f816114e3565b9050919050565b6000611531826110bc565b915061153c836110bc565b92508282101561154f5761154e6111fd565b5b828203905092915050565b6000611565826110bc565b9150611570836110bc565b9250817fffffffffffffffffffffffffffffffffffffffffffffffffffffffffffffffff04831182151516156115a9576115a86111fd565b5b828202905092915050565b7f4e487b7100000000000000000000000000000000000000000000000000000000600052601260045260246000fd5b60006115ee826110bc565b91506115f9836110bc565b925082611609576116086115b4565b5b828204905092915050565b61161d816110bc565b811461162857600080fd5b50565b60008151905061163a81611614565b92915050565b60006020828403121561165657611655610f42565b5b60006116648482850161162b565b91505092915050565b7f4e487b7100000000000000000000000000000000000000000000000000000000600052604160045260246000fd5b60006040820190506116b160008301856113dc565b6116be60208301846110c6565b939250505056fea264697066735822122011acafdd0a267ebea31fe5fc1774b09450dd2565d48cf41e272437f3ff42993164736f6c634300080c0033",
  "linkReferences": {},
  "deployedLinkReferences": {}
}