{
  "_format": "hh-sol-artifact-1",
  "contractName": "LionNFT",
  "sourceName": "contracts/LionNFT.sol",
  "abi": [
    {
      "inputs": [
        {
          "internalType": "address[]",
          "name": "_team",
          "type": "address[]"
        },
        {
          "internalType": "uint256[]",
          "name": "_teamShares",
          "type": "uint256[]"
        },
        {
          "internalType": "string",
          "name": "_baseURI",
          "type": "string"
        }
      ],
      "stateMutability": "nonpayable",
      "type": "constructor"
    },
    {
      "inputs": [],
      "name": "ApprovalCallerNotOwnerNorApproved",
      "type": "error"
    },
    {
      "inputs": [],
      "name": "ApprovalQueryForNonexistentToken",
      "type": "error"
    },
    {
      "inputs": [],
      "name": "BalanceQueryForZeroAddress",
      "type": "error"
    },
    {
      "inputs": [],
      "name": "InvalidQueryRange",
      "type": "error"
    },
    {
      "inputs": [],
      "name": "MintERC2309QuantityExceedsLimit",
      "type": "error"
    },
    {
      "inputs": [],
      "name": "MintToZeroAddress",
      "type": "error"
    },
    {
      "inputs": [],
      "name": "MintZeroQuantity",
      "type": "error"
    },
    {
      "inputs": [],
      "name": "OwnerQueryForNonexistentToken",
      "type": "error"
    },
    {
      "inputs": [],
      "name": "OwnershipNotInitializedForExtraData",
      "type": "error"
    },
    {
      "inputs": [],
      "name": "TransferCallerNotOwnerNorApproved",
      "type": "error"
    },
    {
      "inputs": [],
      "name": "TransferFromIncorrectOwner",
      "type": "error"
    },
    {
      "inputs": [],
      "name": "TransferToNonERC721ReceiverImplementer",
      "type": "error"
    },
    {
      "inputs": [],
      "name": "TransferToZeroAddress",
      "type": "error"
    },
    {
      "inputs": [],
      "name": "URIQueryForNonexistentToken",
      "type": "error"
    },
    {
      "anonymous": false,
      "inputs": [
        {
          "indexed": true,
          "internalType": "address",
          "name": "owner",
          "type": "address"
        },
        {
          "indexed": true,
          "internalType": "address",
          "name": "approved",
          "type": "address"
        },
        {
          "indexed": true,
          "internalType": "uint256",
          "name": "tokenId",
          "type": "uint256"
        }
      ],
      "name": "Approval",
      "type": "event"
    },
    {
      "anonymous": false,
      "inputs": [
        {
          "indexed": true,
          "internalType": "address",
          "name": "owner",
          "type": "address"
        },
        {
          "indexed": true,
          "internalType": "address",
          "name": "operator",
          "type": "address"
        },
        {
          "indexed": false,
          "internalType": "bool",
          "name": "approved",
          "type": "bool"
        }
      ],
      "name": "ApprovalForAll",
      "type": "event"
    },
    {
      "anonymous": false,
      "inputs": [
        {
          "indexed": true,
          "internalType": "uint256",
          "name": "fromTokenId",
          "type": "uint256"
        },
        {
          "indexed": false,
          "internalType": "uint256",
          "name": "toTokenId",
          "type": "uint256"
        },
        {
          "indexed": true,
          "internalType": "address",
          "name": "from",
          "type": "address"
        },
        {
          "indexed": true,
          "internalType": "address",
          "name": "to",
          "type": "address"
        }
      ],
      "name": "ConsecutiveTransfer",
      "type": "event"
    },
    {
      "anonymous": false,
      "inputs": [
        {
          "indexed": true,
          "internalType": "contract IERC20",
          "name": "token",
          "type": "address"
        },
        {
          "indexed": false,
          "internalType": "address",
          "name": "to",
          "type": "address"
        },
        {
          "indexed": false,
          "internalType": "uint256",
          "name": "amount",
          "type": "uint256"
        }
      ],
      "name": "ERC20PaymentReleased",
      "type": "event"
    },
    {
      "anonymous": false,
      "inputs": [
        {
          "indexed": true,
          "internalType": "address",
          "name": "previousOwner",
          "type": "address"
        },
        {
          "indexed": true,
          "internalType": "address",
          "name": "newOwner",
          "type": "address"
        }
      ],
      "name": "OwnershipTransferred",
      "type": "event"
    },
    {
      "anonymous": false,
      "inputs": [
        {
          "indexed": false,
          "internalType": "address",
          "name": "account",
          "type": "address"
        },
        {
          "indexed": false,
          "internalType": "uint256",
          "name": "shares",
          "type": "uint256"
        }
      ],
      "name": "PayeeAdded",
      "type": "event"
    },
    {
      "anonymous": false,
      "inputs": [
        {
          "indexed": false,
          "internalType": "address",
          "name": "from",
          "type": "address"
        },
        {
          "indexed": false,
          "internalType": "uint256",
          "name": "amount",
          "type": "uint256"
        }
      ],
      "name": "PaymentReceived",
      "type": "event"
    },
    {
      "anonymous": false,
      "inputs": [
        {
          "indexed": false,
          "internalType": "address",
          "name": "to",
          "type": "address"
        },
        {
          "indexed": false,
          "internalType": "uint256",
          "name": "amount",
          "type": "uint256"
        }
      ],
      "name": "PaymentReleased",
      "type": "event"
    },
    {
      "anonymous": false,
      "inputs": [
        {
          "indexed": true,
          "internalType": "address",
          "name": "from",
          "type": "address"
        },
        {
          "indexed": true,
          "internalType": "address",
          "name": "to",
          "type": "address"
        },
        {
          "indexed": true,
          "internalType": "uint256",
          "name": "tokenId",
          "type": "uint256"
        }
      ],
      "name": "Transfer",
      "type": "event"
    },
    {
      "inputs": [
        {
          "internalType": "address",
          "name": "to",
          "type": "address"
        },
        {
          "internalType": "uint256",
          "name": "tokenId",
          "type": "uint256"
        }
      ],
      "name": "approve",
      "outputs": [],
      "stateMutability": "payable",
      "type": "function"
    },
    {
      "inputs": [
        {
          "internalType": "address",
          "name": "owner",
          "type": "address"
        }
      ],
      "name": "balanceOf",
      "outputs": [
        {
          "internalType": "uint256",
          "name": "",
          "type": "uint256"
        }
      ],
      "stateMutability": "view",
      "type": "function"
    },
    {
      "inputs": [],
      "name": "baseURI",
      "outputs": [
        {
          "internalType": "string",
          "name": "",
          "type": "string"
        }
      ],
      "stateMutability": "view",
      "type": "function"
    },
    {
      "inputs": [
        {
          "internalType": "uint256",
          "name": "tokenId",
          "type": "uint256"
        }
      ],
      "name": "explicitOwnershipOf",
      "outputs": [
        {
          "components": [
            {
              "internalType": "address",
              "name": "addr",
              "type": "address"
            },
            {
              "internalType": "uint64",
              "name": "startTimestamp",
              "type": "uint64"
            },
            {
              "internalType": "bool",
              "name": "burned",
              "type": "bool"
            },
            {
              "internalType": "uint24",
              "name": "extraData",
              "type": "uint24"
            }
          ],
          "internalType": "struct IERC721A.TokenOwnership",
          "name": "",
          "type": "tuple"
        }
      ],
      "stateMutability": "view",
      "type": "function"
    },
    {
      "inputs": [
        {
          "internalType": "uint256[]",
          "name": "tokenIds",
          "type": "uint256[]"
        }
      ],
      "name": "explicitOwnershipsOf",
      "outputs": [
        {
          "components": [
            {
              "internalType": "address",
              "name": "addr",
              "type": "address"
            },
            {
              "internalType": "uint64",
              "name": "startTimestamp",
              "type": "uint64"
            },
            {
              "internalType": "bool",
              "name": "burned",
              "type": "bool"
            },
            {
              "internalType": "uint24",
              "name": "extraData",
              "type": "uint24"
            }
          ],
          "internalType": "struct IERC721A.TokenOwnership[]",
          "name": "",
          "type": "tuple[]"
        }
      ],
      "stateMutability": "view",
      "type": "function"
    },
    {
      "inputs": [
        {
          "internalType": "uint256",
          "name": "tokenId",
          "type": "uint256"
        }
      ],
      "name": "getApproved",
      "outputs": [
        {
          "internalType": "address",
          "name": "",
          "type": "address"
        }
      ],
      "stateMutability": "view",
      "type": "function"
    },
    {
      "inputs": [
        {
          "internalType": "address",
          "name": "owner",
          "type": "address"
        },
        {
          "internalType": "address",
          "name": "operator",
          "type": "address"
        }
      ],
      "name": "isApprovedForAll",
      "outputs": [
        {
          "internalType": "bool",
          "name": "",
          "type": "bool"
        }
      ],
      "stateMutability": "view",
      "type": "function"
    },
    {
      "inputs": [],
      "name": "mintPrice",
      "outputs": [
        {
          "internalType": "uint256",
          "name": "",
          "type": "uint256"
        }
      ],
      "stateMutability": "view",
      "type": "function"
    },
    {
      "inputs": [],
      "name": "name",
      "outputs": [
        {
          "internalType": "string",
          "name": "",
          "type": "string"
        }
      ],
      "stateMutability": "view",
      "type": "function"
    },
    {
      "inputs": [],
      "name": "owner",
      "outputs": [
        {
          "internalType": "address",
          "name": "",
          "type": "address"
        }
      ],
      "stateMutability": "view",
      "type": "function"
    },
    {
      "inputs": [
        {
          "internalType": "uint256",
          "name": "tokenId",
          "type": "uint256"
        }
      ],
      "name": "ownerOf",
      "outputs": [
        {
          "internalType": "address",
          "name": "",
          "type": "address"
        }
      ],
      "stateMutability": "view",
      "type": "function"
    },
    {
      "inputs": [
        {
          "internalType": "uint256",
          "name": "index",
          "type": "uint256"
        }
      ],
      "name": "payee",
      "outputs": [
        {
          "internalType": "address",
          "name": "",
          "type": "address"
        }
      ],
      "stateMutability": "view",
      "type": "function"
    },
    {
      "inputs": [
        {
          "internalType": "address",
          "name": "_account",
          "type": "address"
        },
        {
          "internalType": "uint256",
          "name": "_quantity",
          "type": "uint256"
        }
      ],
      "name": "publicSaleMint",
      "outputs": [],
      "stateMutability": "payable",
      "type": "function"
    },
    {
      "inputs": [
        {
          "internalType": "address",
          "name": "account",
          "type": "address"
        }
      ],
      "name": "releasable",
      "outputs": [
        {
          "internalType": "uint256",
          "name": "",
          "type": "uint256"
        }
      ],
      "stateMutability": "view",
      "type": "function"
    },
    {
      "inputs": [
        {
          "internalType": "contract IERC20",
          "name": "token",
          "type": "address"
        },
        {
          "internalType": "address",
          "name": "account",
          "type": "address"
        }
      ],
      "name": "releasable",
      "outputs": [
        {
          "internalType": "uint256",
          "name": "",
          "type": "uint256"
        }
      ],
      "stateMutability": "view",
      "type": "function"
    },
    {
      "inputs": [
        {
          "internalType": "address payable",
          "name": "account",
          "type": "address"
        }
      ],
      "name": "release",
      "outputs": [],
      "stateMutability": "nonpayable",
      "type": "function"
    },
    {
      "inputs": [
        {
          "internalType": "contract IERC20",
          "name": "token",
          "type": "address"
        },
        {
          "internalType": "address",
          "name": "account",
          "type": "address"
        }
      ],
      "name": "release",
      "outputs": [],
      "stateMutability": "nonpayable",
      "type": "function"
    },
    {
      "inputs": [],
      "name": "releaseAll",
      "outputs": [],
      "stateMutability": "nonpayable",
      "type": "function"
    },
    {
      "inputs": [
        {
          "internalType": "contract IERC20",
          "name": "token",
          "type": "address"
        },
        {
          "internalType": "address",
          "name": "account",
          "type": "address"
        }
      ],
      "name": "released",
      "outputs": [
        {
          "internalType": "uint256",
          "name": "",
          "type": "uint256"
        }
      ],
      "stateMutability": "view",
      "type": "function"
    },
    {
      "inputs": [
        {
          "internalType": "address",
          "name": "account",
          "type": "address"
        }
      ],
      "name": "released",
      "outputs": [
        {
          "internalType": "uint256",
          "name": "",
          "type": "uint256"
        }
      ],
      "stateMutability": "view",
      "type": "function"
    },
    {
      "inputs": [],
      "name": "renounceOwnership",
      "outputs": [],
      "stateMutability": "nonpayable",
      "type": "function"
    },
    {
      "inputs": [
        {
          "internalType": "address",
          "name": "from",
          "type": "address"
        },
        {
          "internalType": "address",
          "name": "to",
          "type": "address"
        },
        {
          "internalType": "uint256",
          "name": "tokenId",
          "type": "uint256"
        }
      ],
      "name": "safeTransferFrom",
      "outputs": [],
      "stateMutability": "payable",
      "type": "function"
    },
    {
      "inputs": [
        {
          "internalType": "address",
          "name": "from",
          "type": "address"
        },
        {
          "internalType": "address",
          "name": "to",
          "type": "address"
        },
        {
          "internalType": "uint256",
          "name": "tokenId",
          "type": "uint256"
        },
        {
          "internalType": "bytes",
          "name": "_data",
          "type": "bytes"
        }
      ],
      "name": "safeTransferFrom",
      "outputs": [],
      "stateMutability": "payable",
      "type": "function"
    },
    {
      "inputs": [
        {
          "internalType": "address",
          "name": "operator",
          "type": "address"
        },
        {
          "internalType": "bool",
          "name": "approved",
          "type": "bool"
        }
      ],
      "name": "setApprovalForAll",
      "outputs": [],
      "stateMutability": "nonpayable",
      "type": "function"
    },
    {
      "inputs": [
        {
          "internalType": "string",
          "name": "_baseURI",
          "type": "string"
        }
      ],
      "name": "setBaseUri",
      "outputs": [],
      "stateMutability": "nonpayable",
      "type": "function"
    },
    {
      "inputs": [
        {
          "internalType": "address",
          "name": "account",
          "type": "address"
        }
      ],
      "name": "shares",
      "outputs": [
        {
          "internalType": "uint256",
          "name": "",
          "type": "uint256"
        }
      ],
      "stateMutability": "view",
      "type": "function"
    },
    {
      "inputs": [
        {
          "internalType": "bytes4",
          "name": "interfaceId",
          "type": "bytes4"
        }
      ],
      "name": "supportsInterface",
      "outputs": [
        {
          "internalType": "bool",
          "name": "",
          "type": "bool"
        }
      ],
      "stateMutability": "view",
      "type": "function"
    },
    {
      "inputs": [],
      "name": "symbol",
      "outputs": [
        {
          "internalType": "string",
          "name": "",
          "type": "string"
        }
      ],
      "stateMutability": "view",
      "type": "function"
    },
    {
      "inputs": [
        {
          "internalType": "uint256",
          "name": "_tokenId",
          "type": "uint256"
        }
      ],
      "name": "tokenURI",
      "outputs": [
        {
          "internalType": "string",
          "name": "",
          "type": "string"
        }
      ],
      "stateMutability": "view",
      "type": "function"
    },
    {
      "inputs": [
        {
          "internalType": "address",
          "name": "owner",
          "type": "address"
        }
      ],
      "name": "tokensOfOwner",
      "outputs": [
        {
          "internalType": "uint256[]",
          "name": "",
          "type": "uint256[]"
        }
      ],
      "stateMutability": "view",
      "type": "function"
    },
    {
      "inputs": [
        {
          "internalType": "address",
          "name": "owner",
          "type": "address"
        },
        {
          "internalType": "uint256",
          "name": "start",
          "type": "uint256"
        },
        {
          "internalType": "uint256",
          "name": "stop",
          "type": "uint256"
        }
      ],
      "name": "tokensOfOwnerIn",
      "outputs": [
        {
          "internalType": "uint256[]",
          "name": "",
          "type": "uint256[]"
        }
      ],
      "stateMutability": "view",
      "type": "function"
    },
    {
      "inputs": [
        {
          "internalType": "contract IERC20",
          "name": "token",
          "type": "address"
        }
      ],
      "name": "totalReleased",
      "outputs": [
        {
          "internalType": "uint256",
          "name": "",
          "type": "uint256"
        }
      ],
      "stateMutability": "view",
      "type": "function"
    },
    {
      "inputs": [],
      "name": "totalReleased",
      "outputs": [
        {
          "internalType": "uint256",
          "name": "",
          "type": "uint256"
        }
      ],
      "stateMutability": "view",
      "type": "function"
    },
    {
      "inputs": [],
      "name": "totalShares",
      "outputs": [
        {
          "internalType": "uint256",
          "name": "",
          "type": "uint256"
        }
      ],
      "stateMutability": "view",
      "type": "function"
    },
    {
      "inputs": [],
      "name": "totalSupply",
      "outputs": [
        {
          "internalType": "uint256",
          "name": "",
          "type": "uint256"
        }
      ],
      "stateMutability": "view",
      "type": "function"
    },
    {
      "inputs": [
        {
          "internalType": "address",
          "name": "from",
          "type": "address"
        },
        {
          "internalType": "address",
          "name": "to",
          "type": "address"
        },
        {
          "internalType": "uint256",
          "name": "tokenId",
          "type": "uint256"
        }
      ],
      "name": "transferFrom",
      "outputs": [],
      "stateMutability": "payable",
      "type": "function"
    },
    {
      "inputs": [
        {
          "internalType": "address",
          "name": "newOwner",
          "type": "address"
        }
      ],
      "name": "transferOwnership",
      "outputs": [],
      "stateMutability": "nonpayable",
      "type": "function"
    },
    {
      "stateMutability": "payable",
      "type": "receive"
    }
  ],
  "bytecode": "0x6080604052660aa87bee5380006011553480156200001c57600080fd5b50604051620059b2380380620059b28339818101604052810190620000429190620009f1565b82826040518060400160405280601281526020017f416c706861204c696f6e73204e465420763200000000000000000000000000008152506040518060400160405280600581526020017f414c494f4e000000000000000000000000000000000000000000000000000000815250620000d0620000c46200024460201b60201c565b6200024c60201b60201c565b8160039080519060200190620000e892919062000553565b5080600490805190602001906200010192919062000553565b50620001126200031060201b60201c565b6001819055505050805182511462000161576040517f08c379a0000000000000000000000000000000000000000000000000000000008152600401620001589062000b31565b60405180910390fd5b6000825111620001a8576040517f08c379a00000000000000000000000000000000000000000000000000000000081526004016200019f9062000ba3565b60405180910390fd5b60005b8251811015620002175762000201838281518110620001cf57620001ce62000bc5565b5b6020026020010151838381518110620001ed57620001ec62000bc5565b5b60200260200101516200031960201b60201c565b80806200020e9062000c23565b915050620001ab565b50505080601090805190602001906200023292919062000553565b50825160128190555050505062000f24565b600033905090565b60008060009054906101000a900473ffffffffffffffffffffffffffffffffffffffff169050816000806101000a81548173ffffffffffffffffffffffffffffffffffffffff021916908373ffffffffffffffffffffffffffffffffffffffff1602179055508173ffffffffffffffffffffffffffffffffffffffff168173ffffffffffffffffffffffffffffffffffffffff167f8be0079c531659141344cd1fd0a4f28419497f9722a3daafe3b4186f6b6457e060405160405180910390a35050565b60006001905090565b600073ffffffffffffffffffffffffffffffffffffffff168273ffffffffffffffffffffffffffffffffffffffff1614156200038c576040517f08c379a0000000000000000000000000000000000000000000000000000000008152600401620003839062000ce7565b60405180910390fd5b60008111620003d2576040517f08c379a0000000000000000000000000000000000000000000000000000000008152600401620003c99062000d59565b60405180910390fd5b6000600b60008473ffffffffffffffffffffffffffffffffffffffff1673ffffffffffffffffffffffffffffffffffffffff168152602001908152602001600020541462000457576040517f08c379a00000000000000000000000000000000000000000000000000000000081526004016200044e9062000df1565b60405180910390fd5b600d829080600181540180825580915050600190039060005260206000200160009091909190916101000a81548173ffffffffffffffffffffffffffffffffffffffff021916908373ffffffffffffffffffffffffffffffffffffffff16021790555080600b60008473ffffffffffffffffffffffffffffffffffffffff1673ffffffffffffffffffffffffffffffffffffffff16815260200190815260200160002081905550806009546200050e919062000e13565b6009819055507f40c340f65e17194d14ddddb073d3c9f888e3cb52b5aae0c6c7706b4fbc905fac82826040516200054792919062000e92565b60405180910390a15050565b828054620005619062000eee565b90600052602060002090601f016020900481019282620005855760008555620005d1565b82601f10620005a057805160ff1916838001178555620005d1565b82800160010185558215620005d1579182015b82811115620005d0578251825591602001919060010190620005b3565b5b509050620005e09190620005e4565b5090565b5b80821115620005ff576000816000905550600101620005e5565b5090565b6000604051905090565b600080fd5b600080fd5b600080fd5b6000601f19601f8301169050919050565b7f4e487b7100000000000000000000000000000000000000000000000000000000600052604160045260246000fd5b62000667826200061c565b810181811067ffffffffffffffff821117156200068957620006886200062d565b5b80604052505050565b60006200069e62000603565b9050620006ac82826200065c565b919050565b600067ffffffffffffffff821115620006cf57620006ce6200062d565b5b602082029050602081019050919050565b600080fd5b600073ffffffffffffffffffffffffffffffffffffffff82169050919050565b60006200071282620006e5565b9050919050565b620007248162000705565b81146200073057600080fd5b50565b600081519050620007448162000719565b92915050565b6000620007616200075b84620006b1565b62000692565b90508083825260208201905060208402830185811115620007875762000786620006e0565b5b835b81811015620007b457806200079f888262000733565b84526020840193505060208101905062000789565b5050509392505050565b600082601f830112620007d657620007d562000617565b5b8151620007e88482602086016200074a565b91505092915050565b600067ffffffffffffffff8211156200080f576200080e6200062d565b5b602082029050602081019050919050565b6000819050919050565b620008358162000820565b81146200084157600080fd5b50565b60008151905062000855816200082a565b92915050565b6000620008726200086c84620007f1565b62000692565b90508083825260208201905060208402830185811115620008985762000897620006e0565b5b835b81811015620008c55780620008b0888262000844565b8452602084019350506020810190506200089a565b5050509392505050565b600082601f830112620008e757620008e662000617565b5b8151620008f98482602086016200085b565b91505092915050565b600080fd5b600067ffffffffffffffff8211156200092557620009246200062d565b5b62000930826200061c565b9050602081019050919050565b60005b838110156200095d57808201518184015260208101905062000940565b838111156200096d576000848401525b50505050565b60006200098a620009848462000907565b62000692565b905082815260208101848484011115620009a957620009a862000902565b5b620009b68482856200093d565b509392505050565b600082601f830112620009d657620009d562000617565b5b8151620009e884826020860162000973565b91505092915050565b60008060006060848603121562000a0d5762000a0c6200060d565b5b600084015167ffffffffffffffff81111562000a2e5762000a2d62000612565b5b62000a3c86828701620007be565b935050602084015167ffffffffffffffff81111562000a605762000a5f62000612565b5b62000a6e86828701620008cf565b925050604084015167ffffffffffffffff81111562000a925762000a9162000612565b5b62000aa086828701620009be565b9150509250925092565b600082825260208201905092915050565b7f5061796d656e7453706c69747465723a2070617965657320616e64207368617260008201527f6573206c656e677468206d69736d617463680000000000000000000000000000602082015250565b600062000b1960328362000aaa565b915062000b268262000abb565b604082019050919050565b6000602082019050818103600083015262000b4c8162000b0a565b9050919050565b7f5061796d656e7453706c69747465723a206e6f20706179656573000000000000600082015250565b600062000b8b601a8362000aaa565b915062000b988262000b53565b602082019050919050565b6000602082019050818103600083015262000bbe8162000b7c565b9050919050565b7f4e487b7100000000000000000000000000000000000000000000000000000000600052603260045260246000fd5b7f4e487b7100000000000000000000000000000000000000000000000000000000600052601160045260246000fd5b600062000c308262000820565b91507fffffffffffffffffffffffffffffffffffffffffffffffffffffffffffffffff82141562000c665762000c6562000bf4565b5b600182019050919050565b7f5061796d656e7453706c69747465723a206163636f756e74206973207468652060008201527f7a65726f20616464726573730000000000000000000000000000000000000000602082015250565b600062000ccf602c8362000aaa565b915062000cdc8262000c71565b604082019050919050565b6000602082019050818103600083015262000d028162000cc0565b9050919050565b7f5061796d656e7453706c69747465723a20736861726573206172652030000000600082015250565b600062000d41601d8362000aaa565b915062000d4e8262000d09565b602082019050919050565b6000602082019050818103600083015262000d748162000d32565b9050919050565b7f5061796d656e7453706c69747465723a206163636f756e7420616c726561647960008201527f2068617320736861726573000000000000000000000000000000000000000000602082015250565b600062000dd9602b8362000aaa565b915062000de68262000d7b565b604082019050919050565b6000602082019050818103600083015262000e0c8162000dca565b9050919050565b600062000e208262000820565b915062000e2d8362000820565b9250827fffffffffffffffffffffffffffffffffffffffffffffffffffffffffffffffff0382111562000e655762000e6462000bf4565b5b828201905092915050565b62000e7b8162000705565b82525050565b62000e8c8162000820565b82525050565b600060408201905062000ea9600083018562000e70565b62000eb8602083018462000e81565b9392505050565b7f4e487b7100000000000000000000000000000000000000000000000000000000600052602260045260246000fd5b6000600282049050600182168062000f0757607f821691505b6020821081141562000f1e5762000f1d62000ebf565b5b50919050565b614a7e8062000f346000396000f3fe60806040526004361061021e5760003560e01c80638462151c11610123578063ac5ae11b116100ab578063ce7c2ac21161006f578063ce7c2ac214610844578063d79779b214610881578063e33b7de3146108be578063e985e9c5146108e9578063f2fde38b146109265761025e565b8063ac5ae11b14610755578063b88d4fde14610771578063c23dc68f1461078d578063c45ac050146107ca578063c87b56dd146108075761025e565b80639852595c116100f25780639852595c1461064c57806399a2557a14610689578063a0bcfc7f146106c6578063a22cb465146106ef578063a3f8eace146107185761025e565b80638462151c1461057c5780638b83209b146105b95780638da5cb5b146105f657806395d89b41146106215761025e565b806342842e0e116101a65780636352211e116101755780636352211e146104955780636817c76c146104d25780636c0360eb146104fd57806370a0823114610528578063715018a6146105655761025e565b806342842e0e146103fc57806348b75044146104185780635bbb2177146104415780635be7fde81461047e5761025e565b806318160ddd116101ed57806318160ddd14610324578063191655871461034f57806323b872dd146103785780633a98ef3914610394578063406072a9146103bf5761025e565b806301ffc9a71461026357806306fdde03146102a0578063081812fc146102cb578063095ea7b3146103085761025e565b3661025e576040517f08c379a000000000000000000000000000000000000000000000000000000000815260040161025590613198565b60405180910390fd5b600080fd5b34801561026f57600080fd5b5061028a60048036038101906102859190613224565b61094f565b604051610297919061326c565b60405180910390f35b3480156102ac57600080fd5b506102b56109e1565b6040516102c2919061330f565b60405180910390f35b3480156102d757600080fd5b506102f260048036038101906102ed9190613367565b610a73565b6040516102ff91906133d5565b60405180910390f35b610322600480360381019061031d919061341c565b610af2565b005b34801561033057600080fd5b50610339610b02565b604051610346919061346b565b60405180910390f35b34801561035b57600080fd5b50610376600480360381019061037191906134c4565b610b19565b005b610392600480360381019061038d91906134f1565b610c99565b005b3480156103a057600080fd5b506103a9610fbe565b6040516103b6919061346b565b60405180910390f35b3480156103cb57600080fd5b506103e660048036038101906103e19190613582565b610fc8565b6040516103f3919061346b565b60405180910390f35b610416600480360381019061041191906134f1565b61104f565b005b34801561042457600080fd5b5061043f600480360381019061043a9190613582565b61106f565b005b34801561044d57600080fd5b5061046860048036038101906104639190613627565b611283565b60405161047591906137d7565b60405180910390f35b34801561048a57600080fd5b50610493611346565b005b3480156104a157600080fd5b506104bc60048036038101906104b79190613367565b61137a565b6040516104c991906133d5565b60405180910390f35b3480156104de57600080fd5b506104e761138c565b6040516104f4919061346b565b60405180910390f35b34801561050957600080fd5b50610512611392565b60405161051f919061330f565b60405180910390f35b34801561053457600080fd5b5061054f600480360381019061054a91906137f9565b611420565b60405161055c919061346b565b60405180910390f35b34801561057157600080fd5b5061057a6114d9565b005b34801561058857600080fd5b506105a3600480360381019061059e91906137f9565b6114ed565b6040516105b091906138e4565b60405180910390f35b3480156105c557600080fd5b506105e060048036038101906105db9190613367565b611637565b6040516105ed91906133d5565b60405180910390f35b34801561060257600080fd5b5061060b61167f565b60405161061891906133d5565b60405180910390f35b34801561062d57600080fd5b506106366116a8565b604051610643919061330f565b60405180910390f35b34801561065857600080fd5b50610673600480360381019061066e91906137f9565b61173a565b604051610680919061346b565b60405180910390f35b34801561069557600080fd5b506106b060048036038101906106ab9190613906565b611783565b6040516106bd91906138e4565b60405180910390f35b3480156106d257600080fd5b506106ed60048036038101906106e89190613a89565b611997565b005b3480156106fb57600080fd5b5061071660048036038101906107119190613afe565b6119b9565b005b34801561072457600080fd5b5061073f600480360381019061073a91906137f9565b611ac4565b60405161074c919061346b565b60405180910390f35b61076f600480360381019061076a919061341c565b611af7565b005b61078b60048036038101906107869190613bdf565b611c54565b005b34801561079957600080fd5b506107b460048036038101906107af9190613367565b611cc7565b6040516107c19190613cb7565b60405180910390f35b3480156107d657600080fd5b506107f160048036038101906107ec9190613582565b611d31565b6040516107fe919061346b565b60405180910390f35b34801561081357600080fd5b5061082e60048036038101906108299190613367565b611de0565b60405161083b919061330f565b60405180910390f35b34801561085057600080fd5b5061086b600480360381019061086691906137f9565b611e5c565b604051610878919061346b565b60405180910390f35b34801561088d57600080fd5b506108a860048036038101906108a39190613cd2565b611ea5565b6040516108b5919061346b565b60405180910390f35b3480156108ca57600080fd5b506108d3611eee565b6040516108e0919061346b565b60405180910390f35b3480156108f557600080fd5b50610910600480360381019061090b9190613cff565b611ef8565b60405161091d919061326c565b60405180910390f35b34801561093257600080fd5b5061094d600480360381019061094891906137f9565b611f8c565b005b60006301ffc9a760e01b827bffffffffffffffffffffffffffffffffffffffffffffffffffffffff191614806109aa57506380ac58cd60e01b827bffffffffffffffffffffffffffffffffffffffffffffffffffffffff1916145b806109da5750635b5e139f60e01b827bffffffffffffffffffffffffffffffffffffffffffffffffffffffff1916145b9050919050565b6060600380546109f090613d6e565b80601f0160208091040260200160405190810160405280929190818152602001828054610a1c90613d6e565b8015610a695780601f10610a3e57610100808354040283529160200191610a69565b820191906000526020600020905b815481529060010190602001808311610a4c57829003601f168201915b5050505050905090565b6000610a7e82612010565b610ab4576040517fcf4700e400000000000000000000000000000000000000000000000000000000815260040160405180910390fd5b6007600083815260200190815260200160002060000160009054906101000a900473ffffffffffffffffffffffffffffffffffffffff169050919050565b610afe8282600161206f565b5050565b6000610b0c6121bf565b6002546001540303905090565b6000600b60008373ffffffffffffffffffffffffffffffffffffffff1673ffffffffffffffffffffffffffffffffffffffff1681526020019081526020016000205411610b9b576040517f08c379a0000000000000000000000000000000000000000000000000000000008152600401610b9290613e12565b60405180910390fd5b6000610ba682611ac4565b90506000811415610bec576040517f08c379a0000000000000000000000000000000000000000000000000000000008152600401610be390613ea4565b60405180910390fd5b80600a6000828254610bfe9190613ef3565b9250508190555080600c60008473ffffffffffffffffffffffffffffffffffffffff1673ffffffffffffffffffffffffffffffffffffffff16815260200190815260200160002060008282540192505081905550610c5c82826121c8565b7fdf20fd1e76bc69d672e4814fafb2c449bba3a5369d8359adf9e05e6fde87b0568282604051610c8d929190613fa8565b60405180910390a15050565b6000610ca4826122bc565b90508373ffffffffffffffffffffffffffffffffffffffff168173ffffffffffffffffffffffffffffffffffffffff1614610d0b576040517fa114810000000000000000000000000000000000000000000000000000000000815260040160405180910390fd5b600080610d178461238a565b91509150610d2d8187610d286123b1565b6123b9565b610d7957610d4286610d3d6123b1565b611ef8565b610d78576040517f59c896be00000000000000000000000000000000000000000000000000000000815260040160405180910390fd5b5b600073ffffffffffffffffffffffffffffffffffffffff168573ffffffffffffffffffffffffffffffffffffffff161415610de0576040517fea553b3400000000000000000000000000000000000000000000000000000000815260040160405180910390fd5b610ded86868660016123fd565b8015610df857600082555b600660008773ffffffffffffffffffffffffffffffffffffffff1673ffffffffffffffffffffffffffffffffffffffff168152602001908152602001600020600081546001900391905081905550600660008673ffffffffffffffffffffffffffffffffffffffff1673ffffffffffffffffffffffffffffffffffffffff1681526020019081526020016000206000815460010191905081905550610ec685610ea2888887612403565b7c02000000000000000000000000000000000000000000000000000000001761242b565b600560008681526020019081526020016000208190555060007c020000000000000000000000000000000000000000000000000000000084161415610f4e576000600185019050600060056000838152602001908152602001600020541415610f4c576001548114610f4b578360056000838152602001908152602001600020819055505b5b505b838573ffffffffffffffffffffffffffffffffffffffff168773ffffffffffffffffffffffffffffffffffffffff167fddf252ad1be2c89b69c2b068fc378daa952ba7f163c4a11628f55a4df523b3ef60405160405180910390a4610fb68686866001612456565b505050505050565b6000600954905090565b6000600f60008473ffffffffffffffffffffffffffffffffffffffff1673ffffffffffffffffffffffffffffffffffffffff16815260200190815260200160002060008373ffffffffffffffffffffffffffffffffffffffff1673ffffffffffffffffffffffffffffffffffffffff16815260200190815260200160002054905092915050565b61106a83838360405180602001604052806000815250611c54565b505050565b6000600b60008373ffffffffffffffffffffffffffffffffffffffff1673ffffffffffffffffffffffffffffffffffffffff16815260200190815260200160002054116110f1576040517f08c379a00000000000000000000000000000000000000000000000000000000081526004016110e890613e12565b60405180910390fd5b60006110fd8383611d31565b90506000811415611143576040517f08c379a000000000000000000000000000000000000000000000000000000000815260040161113a90613ea4565b60405180910390fd5b80600e60008573ffffffffffffffffffffffffffffffffffffffff1673ffffffffffffffffffffffffffffffffffffffff16815260200190815260200160002060008282546111929190613ef3565b9250508190555080600f60008573ffffffffffffffffffffffffffffffffffffffff1673ffffffffffffffffffffffffffffffffffffffff16815260200190815260200160002060008473ffffffffffffffffffffffffffffffffffffffff1673ffffffffffffffffffffffffffffffffffffffff1681526020019081526020016000206000828254019250508190555061122e83838361245c565b8273ffffffffffffffffffffffffffffffffffffffff167f3be5b7a71e84ed12875d241991c70855ac5817d847039e17a9d895c1ceb0f18a8383604051611276929190613fd1565b60405180910390a2505050565b6060600083839050905060008167ffffffffffffffff8111156112a9576112a861395e565b5b6040519080825280602002602001820160405280156112e257816020015b6112cf613049565b8152602001906001900390816112c75790505b50905060005b82811461133a5761131186868381811061130557611304613ffa565b5b90506020020135611cc7565b82828151811061132457611323613ffa565b5b60200260200101819052508060010190506112e8565b50809250505092915050565b60005b6012548110156113775761136461135f82611637565b610b19565b808061136f90614029565b915050611349565b50565b6000611385826122bc565b9050919050565b60115481565b6010805461139f90613d6e565b80601f01602080910402602001604051908101604052809291908181526020018280546113cb90613d6e565b80156114185780601f106113ed57610100808354040283529160200191611418565b820191906000526020600020905b8154815290600101906020018083116113fb57829003601f168201915b505050505081565b60008073ffffffffffffffffffffffffffffffffffffffff168273ffffffffffffffffffffffffffffffffffffffff161415611488576040517f8f4eb60400000000000000000000000000000000000000000000000000000000815260040160405180910390fd5b67ffffffffffffffff600660008473ffffffffffffffffffffffffffffffffffffffff1673ffffffffffffffffffffffffffffffffffffffff16815260200190815260200160002054169050919050565b6114e16124e2565b6114eb6000612560565b565b606060008060006114fd85611420565b905060008167ffffffffffffffff81111561151b5761151a61395e565b5b6040519080825280602002602001820160405280156115495781602001602082028036833780820191505090505b509050611554613049565b600061155e6121bf565b90505b8386146116295761157181612624565b91508160400151156115825761161e565b600073ffffffffffffffffffffffffffffffffffffffff16826000015173ffffffffffffffffffffffffffffffffffffffff16146115c257816000015194505b8773ffffffffffffffffffffffffffffffffffffffff168573ffffffffffffffffffffffffffffffffffffffff16141561161d57808387806001019850815181106116105761160f613ffa565b5b6020026020010181815250505b5b806001019050611561565b508195505050505050919050565b6000600d828154811061164d5761164c613ffa565b5b9060005260206000200160009054906101000a900473ffffffffffffffffffffffffffffffffffffffff169050919050565b60008060009054906101000a900473ffffffffffffffffffffffffffffffffffffffff16905090565b6060600480546116b790613d6e565b80601f01602080910402602001604051908101604052809291908181526020018280546116e390613d6e565b80156117305780601f1061170557610100808354040283529160200191611730565b820191906000526020600020905b81548152906001019060200180831161171357829003601f168201915b5050505050905090565b6000600c60008373ffffffffffffffffffffffffffffffffffffffff1673ffffffffffffffffffffffffffffffffffffffff168152602001908152602001600020549050919050565b60608183106117be576040517f32c1995a00000000000000000000000000000000000000000000000000000000815260040160405180910390fd5b6000806117c961264f565b90506117d36121bf565b8510156117e5576117e26121bf565b94505b808411156117f1578093505b60006117fc87611420565b90508486101561181f576000868603905081811015611819578091505b50611824565b600090505b60008167ffffffffffffffff8111156118405761183f61395e565b5b60405190808252806020026020018201604052801561186e5781602001602082028036833780820191505090505b50905060008214156118865780945050505050611990565b600061189188611cc7565b9050600081604001516118a657816000015190505b60008990505b8881141580156118bc5750848714155b15611982576118ca81612624565b92508260400151156118db57611977565b600073ffffffffffffffffffffffffffffffffffffffff16836000015173ffffffffffffffffffffffffffffffffffffffff161461191b57826000015191505b8a73ffffffffffffffffffffffffffffffffffffffff168273ffffffffffffffffffffffffffffffffffffffff161415611976578084888060010199508151811061196957611968613ffa565b5b6020026020010181815250505b5b8060010190506118ac565b508583528296505050505050505b9392505050565b61199f6124e2565b80601090805190602001906119b5929190613098565b5050565b80600860006119c66123b1565b73ffffffffffffffffffffffffffffffffffffffff1673ffffffffffffffffffffffffffffffffffffffff16815260200190815260200160002060008473ffffffffffffffffffffffffffffffffffffffff1673ffffffffffffffffffffffffffffffffffffffff16815260200190815260200160002060006101000a81548160ff0219169083151502179055508173ffffffffffffffffffffffffffffffffffffffff16611a736123b1565b73ffffffffffffffffffffffffffffffffffffffff167f17307eab39ab6107e8899845ad3d59bd9653f200f220920489ca2b5937696c3183604051611ab8919061326c565b60405180910390a35050565b600080611acf611eee565b47611ada9190613ef3565b9050611aef8382611aea8661173a565b612659565b915050919050565b3373ffffffffffffffffffffffffffffffffffffffff163273ffffffffffffffffffffffffffffffffffffffff1614611b65576040517f08c379a0000000000000000000000000000000000000000000000000000000008152600401611b5c906140be565b60405180910390fd5b61014d611b70610b02565b10611bb0576040517f08c379a0000000000000000000000000000000000000000000000000000000008152600401611ba79061412a565b60405180910390fd5b60006011541415611bf6576040517f08c379a0000000000000000000000000000000000000000000000000000000008152600401611bed90614196565b60405180910390fd5b80601154611c0491906141b6565b341015611c46576040517f08c379a0000000000000000000000000000000000000000000000000000000008152600401611c3d9061425c565b60405180910390fd5b611c5082826126c7565b5050565b611c5f848484610c99565b60008373ffffffffffffffffffffffffffffffffffffffff163b14611cc157611c8a848484846126e5565b611cc0576040517fd1a57ed600000000000000000000000000000000000000000000000000000000815260040160405180910390fd5b5b50505050565b611ccf613049565b611cd7613049565b611cdf6121bf565b831080611cf35750611cef61264f565b8310155b15611d015780915050611d2c565b611d0a83612624565b9050806040015115611d1f5780915050611d2c565b611d2883612836565b9150505b919050565b600080611d3d84611ea5565b8473ffffffffffffffffffffffffffffffffffffffff166370a08231306040518263ffffffff1660e01b8152600401611d7691906133d5565b602060405180830381865afa158015611d93573d6000803e3d6000fd5b505050506040513d601f19601f82011682018060405250810190611db79190614291565b611dc19190613ef3565b9050611dd78382611dd28787610fc8565b612659565b91505092915050565b6060611deb82612010565b611e2a576040517f08c379a0000000000000000000000000000000000000000000000000000000008152600401611e219061430a565b60405180910390fd5b6010611e3583612856565b604051602001611e46929190614446565b6040516020818303038152906040529050919050565b6000600b60008373ffffffffffffffffffffffffffffffffffffffff1673ffffffffffffffffffffffffffffffffffffffff168152602001908152602001600020549050919050565b6000600e60008373ffffffffffffffffffffffffffffffffffffffff1673ffffffffffffffffffffffffffffffffffffffff168152602001908152602001600020549050919050565b6000600a54905090565b6000600860008473ffffffffffffffffffffffffffffffffffffffff1673ffffffffffffffffffffffffffffffffffffffff16815260200190815260200160002060008373ffffffffffffffffffffffffffffffffffffffff1673ffffffffffffffffffffffffffffffffffffffff16815260200190815260200160002060009054906101000a900460ff16905092915050565b611f946124e2565b600073ffffffffffffffffffffffffffffffffffffffff168173ffffffffffffffffffffffffffffffffffffffff161415612004576040517f08c379a0000000000000000000000000000000000000000000000000000000008152600401611ffb906144e7565b60405180910390fd5b61200d81612560565b50565b60008161201b6121bf565b1115801561202a575060015482105b8015612068575060007c0100000000000000000000000000000000000000000000000000000000600560008581526020019081526020016000205416145b9050919050565b600061207a8361137a565b90508180156120bc57508073ffffffffffffffffffffffffffffffffffffffff166120a36123b1565b73ffffffffffffffffffffffffffffffffffffffff1614155b15612109576120d2816120cd6123b1565b611ef8565b612108576040517fcfb3b94200000000000000000000000000000000000000000000000000000000815260040160405180910390fd5b5b836007600085815260200190815260200160002060000160006101000a81548173ffffffffffffffffffffffffffffffffffffffff021916908373ffffffffffffffffffffffffffffffffffffffff160217905550828473ffffffffffffffffffffffffffffffffffffffff168273ffffffffffffffffffffffffffffffffffffffff167f8c5be1e5ebec7d5bd14f71427d1e84f3dd0314c0f7b2291e5b200ac8c7c3b92560405160405180910390a450505050565b60006001905090565b8047101561220b576040517f08c379a000000000000000000000000000000000000000000000000000000000815260040161220290614553565b60405180910390fd5b60008273ffffffffffffffffffffffffffffffffffffffff1682604051612231906145a4565b60006040518083038185875af1925050503d806000811461226e576040519150601f19603f3d011682016040523d82523d6000602084013e612273565b606091505b50509050806122b7576040517f08c379a00000000000000000000000000000000000000000000000000000000081526004016122ae9061462b565b60405180910390fd5b505050565b600080829050806122cb6121bf565b11612353576001548110156123525760006005600083815260200190815260200160002054905060007c010000000000000000000000000000000000000000000000000000000082161415612350575b600081141561234657600560008360019003935083815260200190815260200160002054905061231b565b8092505050612385565b505b5b6040517fdf2d9b4200000000000000000000000000000000000000000000000000000000815260040160405180910390fd5b919050565b60008060006007600085815260200190815260200160002090508092508254915050915091565b600033905090565b600073ffffffffffffffffffffffffffffffffffffffff8316925073ffffffffffffffffffffffffffffffffffffffff821691508382148383141790509392505050565b50505050565b60008060e883901c905060e861241a86868461292e565b62ffffff16901b9150509392505050565b600073ffffffffffffffffffffffffffffffffffffffff83169250814260a01b178317905092915050565b50505050565b6124dd8363a9059cbb60e01b848460405160240161247b929190613fd1565b604051602081830303815290604052907bffffffffffffffffffffffffffffffffffffffffffffffffffffffff19166020820180517bffffffffffffffffffffffffffffffffffffffffffffffffffffffff8381831617835250505050612937565b505050565b6124ea6129fe565b73ffffffffffffffffffffffffffffffffffffffff1661250861167f565b73ffffffffffffffffffffffffffffffffffffffff161461255e576040517f08c379a000000000000000000000000000000000000000000000000000000000815260040161255590614697565b60405180910390fd5b565b60008060009054906101000a900473ffffffffffffffffffffffffffffffffffffffff169050816000806101000a81548173ffffffffffffffffffffffffffffffffffffffff021916908373ffffffffffffffffffffffffffffffffffffffff1602179055508173ffffffffffffffffffffffffffffffffffffffff168173ffffffffffffffffffffffffffffffffffffffff167f8be0079c531659141344cd1fd0a4f28419497f9722a3daafe3b4186f6b6457e060405160405180910390a35050565b61262c613049565b6126486005600084815260200190815260200160002054612a06565b9050919050565b6000600154905090565b600081600954600b60008773ffffffffffffffffffffffffffffffffffffffff1673ffffffffffffffffffffffffffffffffffffffff16815260200190815260200160002054856126aa91906141b6565b6126b491906146e6565b6126be9190614717565b90509392505050565b6126e1828260405180602001604052806000815250612abc565b5050565b60008373ffffffffffffffffffffffffffffffffffffffff1663150b7a0261270b6123b1565b8786866040518563ffffffff1660e01b815260040161272d94939291906147a0565b6020604051808303816000875af192505050801561276957506040513d601f19601f820116820180604052508101906127669190614801565b60015b6127e3573d8060008114612799576040519150601f19603f3d011682016040523d82523d6000602084013e61279e565b606091505b506000815114156127db576040517fd1a57ed600000000000000000000000000000000000000000000000000000000815260040160405180910390fd5b805181602001fd5b63150b7a0260e01b7bffffffffffffffffffffffffffffffffffffffffffffffffffffffff1916817bffffffffffffffffffffffffffffffffffffffffffffffffffffffff191614915050949350505050565b61283e613049565b61284f61284a836122bc565b612a06565b9050919050565b60606000600161286584612b5a565b01905060008167ffffffffffffffff8111156128845761288361395e565b5b6040519080825280601f01601f1916602001820160405280156128b65781602001600182028036833780820191505090505b509050600082602001820190505b600115612923578080600190039150507f3031323334353637383961626364656600000000000000000000000000000000600a86061a8153600a858161290d5761290c6146b7565b5b049450600085141561291e57612923565b6128c4565b819350505050919050565b60009392505050565b6000612999826040518060400160405280602081526020017f5361666545524332303a206c6f772d6c6576656c2063616c6c206661696c65648152508573ffffffffffffffffffffffffffffffffffffffff16612cad9092919063ffffffff16565b90506000815111156129f957808060200190518101906129b99190614843565b6129f8576040517f08c379a00000000000000000000000000000000000000000000000000000000081526004016129ef906148e2565b60405180910390fd5b5b505050565b600033905090565b612a0e613049565b81816000019073ffffffffffffffffffffffffffffffffffffffff16908173ffffffffffffffffffffffffffffffffffffffff168152505060a082901c816020019067ffffffffffffffff16908167ffffffffffffffff168152505060007c01000000000000000000000000000000000000000000000000000000008316141581604001901515908115158152505060e882901c816060019062ffffff16908162ffffff1681525050919050565b612ac68383612cc5565b60008373ffffffffffffffffffffffffffffffffffffffff163b14612b555760006001549050600083820390505b612b0760008683806001019450866126e5565b612b3d576040517fd1a57ed600000000000000000000000000000000000000000000000000000000815260040160405180910390fd5b818110612af4578160015414612b5257600080fd5b50505b505050565b600080600090507a184f03e93ff9f4daa797ed6e38ed64bf6a1f0100000000000000008310612bb8577a184f03e93ff9f4daa797ed6e38ed64bf6a1f0100000000000000008381612bae57612bad6146b7565b5b0492506040810190505b6d04ee2d6d415b85acef81000000008310612bf5576d04ee2d6d415b85acef81000000008381612beb57612bea6146b7565b5b0492506020810190505b662386f26fc100008310612c2457662386f26fc100008381612c1a57612c196146b7565b5b0492506010810190505b6305f5e1008310612c4d576305f5e1008381612c4357612c426146b7565b5b0492506008810190505b6127108310612c72576127108381612c6857612c676146b7565b5b0492506004810190505b60648310612c955760648381612c8b57612c8a6146b7565b5b0492506002810190505b600a8310612ca4576001810190505b80915050919050565b6060612cbc8484600085612e83565b90509392505050565b600060015490506000821415612d07576040517fb562e8dd00000000000000000000000000000000000000000000000000000000815260040160405180910390fd5b612d1460008483856123fd565b600160406001901b178202600660008573ffffffffffffffffffffffffffffffffffffffff1673ffffffffffffffffffffffffffffffffffffffff16815260200190815260200160002060008282540192505081905550612d8b83612d7c6000866000612403565b612d8585612f50565b1761242b565b6005600083815260200190815260200160002081905550600080838301905073ffffffffffffffffffffffffffffffffffffffff85169150828260007fddf252ad1be2c89b69c2b068fc378daa952ba7f163c4a11628f55a4df523b3ef600080a4600183015b818114612e2c57808360007fddf252ad1be2c89b69c2b068fc378daa952ba7f163c4a11628f55a4df523b3ef600080a4600181019050612df1565b506000821415612e68576040517f2e07630000000000000000000000000000000000000000000000000000000000815260040160405180910390fd5b806001819055505050612e7e6000848385612456565b505050565b606082471015612ec8576040517f08c379a0000000000000000000000000000000000000000000000000000000008152600401612ebf90614974565b60405180910390fd5b6000808673ffffffffffffffffffffffffffffffffffffffff168587604051612ef191906149c5565b60006040518083038185875af1925050503d8060008114612f2e576040519150601f19603f3d011682016040523d82523d6000602084013e612f33565b606091505b5091509150612f4487838387612f60565b92505050949350505050565b60006001821460e11b9050919050565b60608315612fc357600083511415612fbb57612f7b85612fd6565b612fba576040517f08c379a0000000000000000000000000000000000000000000000000000000008152600401612fb190614a28565b60405180910390fd5b5b829050612fce565b612fcd8383612ff9565b5b949350505050565b6000808273ffffffffffffffffffffffffffffffffffffffff163b119050919050565b60008251111561300c5781518083602001fd5b806040517f08c379a0000000000000000000000000000000000000000000000000000000008152600401613040919061330f565b60405180910390fd5b6040518060800160405280600073ffffffffffffffffffffffffffffffffffffffff168152602001600067ffffffffffffffff168152602001600015158152602001600062ffffff1681525090565b8280546130a490613d6e565b90600052602060002090601f0160209004810192826130c6576000855561310d565b82601f106130df57805160ff191683800117855561310d565b8280016001018555821561310d579182015b8281111561310c5782518255916020019190600101906130f1565b5b50905061311a919061311e565b5090565b5b8082111561313757600081600090555060010161311f565b5090565b600082825260208201905092915050565b7f4f6e6c7920696620796f75206d696e7400000000000000000000000000000000600082015250565b600061318260108361313b565b915061318d8261314c565b602082019050919050565b600060208201905081810360008301526131b181613175565b9050919050565b6000604051905090565b600080fd5b600080fd5b60007fffffffff0000000000000000000000000000000000000000000000000000000082169050919050565b613201816131cc565b811461320c57600080fd5b50565b60008135905061321e816131f8565b92915050565b60006020828403121561323a576132396131c2565b5b60006132488482850161320f565b91505092915050565b60008115159050919050565b61326681613251565b82525050565b6000602082019050613281600083018461325d565b92915050565b600081519050919050565b60005b838110156132b0578082015181840152602081019050613295565b838111156132bf576000848401525b50505050565b6000601f19601f8301169050919050565b60006132e182613287565b6132eb818561313b565b93506132fb818560208601613292565b613304816132c5565b840191505092915050565b6000602082019050818103600083015261332981846132d6565b905092915050565b6000819050919050565b61334481613331565b811461334f57600080fd5b50565b6000813590506133618161333b565b92915050565b60006020828403121561337d5761337c6131c2565b5b600061338b84828501613352565b91505092915050565b600073ffffffffffffffffffffffffffffffffffffffff82169050919050565b60006133bf82613394565b9050919050565b6133cf816133b4565b82525050565b60006020820190506133ea60008301846133c6565b92915050565b6133f9816133b4565b811461340457600080fd5b50565b600081359050613416816133f0565b92915050565b60008060408385031215613433576134326131c2565b5b600061344185828601613407565b925050602061345285828601613352565b9150509250929050565b61346581613331565b82525050565b6000602082019050613480600083018461345c565b92915050565b600061349182613394565b9050919050565b6134a181613486565b81146134ac57600080fd5b50565b6000813590506134be81613498565b92915050565b6000602082840312156134da576134d96131c2565b5b60006134e8848285016134af565b91505092915050565b60008060006060848603121561350a576135096131c2565b5b600061351886828701613407565b935050602061352986828701613407565b925050604061353a86828701613352565b9150509250925092565b600061354f826133b4565b9050919050565b61355f81613544565b811461356a57600080fd5b50565b60008135905061357c81613556565b92915050565b60008060408385031215613599576135986131c2565b5b60006135a78582860161356d565b92505060206135b885828601613407565b9150509250929050565b600080fd5b600080fd5b600080fd5b60008083601f8401126135e7576135e66135c2565b5b8235905067ffffffffffffffff811115613604576136036135c7565b5b6020830191508360208202830111156136205761361f6135cc565b5b9250929050565b6000806020838503121561363e5761363d6131c2565b5b600083013567ffffffffffffffff81111561365c5761365b6131c7565b5b613668858286016135d1565b92509250509250929050565b600081519050919050565b600082825260208201905092915050565b6000819050602082019050919050565b6136a9816133b4565b82525050565b600067ffffffffffffffff82169050919050565b6136cc816136af565b82525050565b6136db81613251565b82525050565b600062ffffff82169050919050565b6136f9816136e1565b82525050565b60808201600082015161371560008501826136a0565b50602082015161372860208501826136c3565b50604082015161373b60408501826136d2565b50606082015161374e60608501826136f0565b50505050565b600061376083836136ff565b60808301905092915050565b6000602082019050919050565b600061378482613674565b61378e818561367f565b935061379983613690565b8060005b838110156137ca5781516137b18882613754565b97506137bc8361376c565b92505060018101905061379d565b5085935050505092915050565b600060208201905081810360008301526137f18184613779565b905092915050565b60006020828403121561380f5761380e6131c2565b5b600061381d84828501613407565b91505092915050565b600081519050919050565b600082825260208201905092915050565b6000819050602082019050919050565b61385b81613331565b82525050565b600061386d8383613852565b60208301905092915050565b6000602082019050919050565b600061389182613826565b61389b8185613831565b93506138a683613842565b8060005b838110156138d75781516138be8882613861565b97506138c983613879565b9250506001810190506138aa565b5085935050505092915050565b600060208201905081810360008301526138fe8184613886565b905092915050565b60008060006060848603121561391f5761391e6131c2565b5b600061392d86828701613407565b935050602061393e86828701613352565b925050604061394f86828701613352565b9150509250925092565b600080fd5b7f4e487b7100000000000000000000000000000000000000000000000000000000600052604160045260246000fd5b613996826132c5565b810181811067ffffffffffffffff821117156139b5576139b461395e565b5b80604052505050565b60006139c86131b8565b90506139d4828261398d565b919050565b600067ffffffffffffffff8211156139f4576139f361395e565b5b6139fd826132c5565b9050602081019050919050565b82818337600083830152505050565b6000613a2c613a27846139d9565b6139be565b905082815260208101848484011115613a4857613a47613959565b5b613a53848285613a0a565b509392505050565b600082601f830112613a7057613a6f6135c2565b5b8135613a80848260208601613a19565b91505092915050565b600060208284031215613a9f57613a9e6131c2565b5b600082013567ffffffffffffffff811115613abd57613abc6131c7565b5b613ac984828501613a5b565b91505092915050565b613adb81613251565b8114613ae657600080fd5b50565b600081359050613af881613ad2565b92915050565b60008060408385031215613b1557613b146131c2565b5b6000613b2385828601613407565b9250506020613b3485828601613ae9565b9150509250929050565b600067ffffffffffffffff821115613b5957613b5861395e565b5b613b62826132c5565b9050602081019050919050565b6000613b82613b7d84613b3e565b6139be565b905082815260208101848484011115613b9e57613b9d613959565b5b613ba9848285613a0a565b509392505050565b600082601f830112613bc657613bc56135c2565b5b8135613bd6848260208601613b6f565b91505092915050565b60008060008060808587031215613bf957613bf86131c2565b5b6000613c0787828801613407565b9450506020613c1887828801613407565b9350506040613c2987828801613352565b925050606085013567ffffffffffffffff811115613c4a57613c496131c7565b5b613c5687828801613bb1565b91505092959194509250565b608082016000820151613c7860008501826136a0565b506020820151613c8b60208501826136c3565b506040820151613c9e60408501826136d2565b506060820151613cb160608501826136f0565b50505050565b6000608082019050613ccc6000830184613c62565b92915050565b600060208284031215613ce857613ce76131c2565b5b6000613cf68482850161356d565b91505092915050565b60008060408385031215613d1657613d156131c2565b5b6000613d2485828601613407565b9250506020613d3585828601613407565b9150509250929050565b7f4e487b7100000000000000000000000000000000000000000000000000000000600052602260045260246000fd5b60006002820490506001821680613d8657607f821691505b60208210811415613d9a57613d99613d3f565b5b50919050565b7f5061796d656e7453706c69747465723a206163636f756e7420686173206e6f2060008201527f7368617265730000000000000000000000000000000000000000000000000000602082015250565b6000613dfc60268361313b565b9150613e0782613da0565b604082019050919050565b60006020820190508181036000830152613e2b81613def565b9050919050565b7f5061796d656e7453706c69747465723a206163636f756e74206973206e6f742060008201527f647565207061796d656e74000000000000000000000000000000000000000000602082015250565b6000613e8e602b8361313b565b9150613e9982613e32565b604082019050919050565b60006020820190508181036000830152613ebd81613e81565b9050919050565b7f4e487b7100000000000000000000000000000000000000000000000000000000600052601160045260246000fd5b6000613efe82613331565b9150613f0983613331565b9250827fffffffffffffffffffffffffffffffffffffffffffffffffffffffffffffffff03821115613f3e57613f3d613ec4565b5b828201905092915050565b6000819050919050565b6000613f6e613f69613f6484613394565b613f49565b613394565b9050919050565b6000613f8082613f53565b9050919050565b6000613f9282613f75565b9050919050565b613fa281613f87565b82525050565b6000604082019050613fbd6000830185613f99565b613fca602083018461345c565b9392505050565b6000604082019050613fe660008301856133c6565b613ff3602083018461345c565b9392505050565b7f4e487b7100000000000000000000000000000000000000000000000000000000600052603260045260246000fd5b600061403482613331565b91507fffffffffffffffffffffffffffffffffffffffffffffffffffffffffffffffff82141561406757614066613ec4565b5b600182019050919050565b7f5468652063616c6c657220697320616e6f7468657220636f6e74726163740000600082015250565b60006140a8601e8361313b565b91506140b382614072565b602082019050919050565b600060208201905081810360008301526140d78161409b565b9050919050565b7f536f6c64206f7574000000000000000000000000000000000000000000000000600082015250565b600061411460088361313b565b915061411f826140de565b602082019050919050565b6000602082019050818103600083015261414381614107565b9050919050565b7f5072696365206973203000000000000000000000000000000000000000000000600082015250565b6000614180600a8361313b565b915061418b8261414a565b602082019050919050565b600060208201905081810360008301526141af81614173565b9050919050565b60006141c182613331565b91506141cc83613331565b9250817fffffffffffffffffffffffffffffffffffffffffffffffffffffffffffffffff048311821515161561420557614204613ec4565b5b828202905092915050565b7f4e6f7420656e6f756768742066756e6473000000000000000000000000000000600082015250565b600061424660118361313b565b915061425182614210565b602082019050919050565b6000602082019050818103600083015261427581614239565b9050919050565b60008151905061428b8161333b565b92915050565b6000602082840312156142a7576142a66131c2565b5b60006142b58482850161427c565b91505092915050565b7f55524920717565727920666f72206e6f6e6578697374656e7420746f6b656e00600082015250565b60006142f4601f8361313b565b91506142ff826142be565b602082019050919050565b60006020820190508181036000830152614323816142e7565b9050919050565b600081905092915050565b60008190508160005260206000209050919050565b6000815461435781613d6e565b614361818661432a565b9450600182166000811461437c576001811461438d576143c0565b60ff198316865281860193506143c0565b61439685614335565b60005b838110156143b857815481890152600182019150602081019050614399565b838801955050505b50505092915050565b60006143d482613287565b6143de818561432a565b93506143ee818560208601613292565b80840191505092915050565b7f2e6a736f6e000000000000000000000000000000000000000000000000000000600082015250565b600061443060058361432a565b915061443b826143fa565b600582019050919050565b6000614452828561434a565b915061445e82846143c9565b915061446982614423565b91508190509392505050565b7f4f776e61626c653a206e6577206f776e657220697320746865207a65726f206160008201527f6464726573730000000000000000000000000000000000000000000000000000602082015250565b60006144d160268361313b565b91506144dc82614475565b604082019050919050565b60006020820190508181036000830152614500816144c4565b9050919050565b7f416464726573733a20696e73756666696369656e742062616c616e6365000000600082015250565b600061453d601d8361313b565b915061454882614507565b602082019050919050565b6000602082019050818103600083015261456c81614530565b9050919050565b600081905092915050565b50565b600061458e600083614573565b91506145998261457e565b600082019050919050565b60006145af82614581565b9150819050919050565b7f416464726573733a20756e61626c6520746f2073656e642076616c75652c207260008201527f6563697069656e74206d61792068617665207265766572746564000000000000602082015250565b6000614615603a8361313b565b9150614620826145b9565b604082019050919050565b6000602082019050818103600083015261464481614608565b9050919050565b7f4f776e61626c653a2063616c6c6572206973206e6f7420746865206f776e6572600082015250565b600061468160208361313b565b915061468c8261464b565b602082019050919050565b600060208201905081810360008301526146b081614674565b9050919050565b7f4e487b7100000000000000000000000000000000000000000000000000000000600052601260045260246000fd5b60006146f182613331565b91506146fc83613331565b92508261470c5761470b6146b7565b5b828204905092915050565b600061472282613331565b915061472d83613331565b9250828210156147405761473f613ec4565b5b828203905092915050565b600081519050919050565b600082825260208201905092915050565b60006147728261474b565b61477c8185614756565b935061478c818560208601613292565b614795816132c5565b840191505092915050565b60006080820190506147b560008301876133c6565b6147c260208301866133c6565b6147cf604083018561345c565b81810360608301526147e18184614767565b905095945050505050565b6000815190506147fb816131f8565b92915050565b600060208284031215614817576148166131c2565b5b6000614825848285016147ec565b91505092915050565b60008151905061483d81613ad2565b92915050565b600060208284031215614859576148586131c2565b5b60006148678482850161482e565b91505092915050565b7f5361666545524332303a204552433230206f7065726174696f6e20646964206e60008201527f6f74207375636365656400000000000000000000000000000000000000000000602082015250565b60006148cc602a8361313b565b91506148d782614870565b604082019050919050565b600060208201905081810360008301526148fb816148bf565b9050919050565b7f416464726573733a20696e73756666696369656e742062616c616e636520666f60008201527f722063616c6c0000000000000000000000000000000000000000000000000000602082015250565b600061495e60268361313b565b915061496982614902565b604082019050919050565b6000602082019050818103600083015261498d81614951565b9050919050565b600061499f8261474b565b6149a98185614573565b93506149b9818560208601613292565b80840191505092915050565b60006149d18284614994565b915081905092915050565b7f416464726573733a2063616c6c20746f206e6f6e2d636f6e7472616374000000600082015250565b6000614a12601d8361313b565b9150614a1d826149dc565b602082019050919050565b60006020820190508181036000830152614a4181614a05565b905091905056fea2646970667358221220b2cfcbe0801a5087b23fa34c2080c1545eb5973cc619e88758354f9d846475e564736f6c634300080c0033",
  "linkReferences": {},
  "deployedLinkReferences": {}
}